:020000040800F2
:100000000000022059530008C1280008CD2800082C
:10001000D5280008DD280008E528000800000000B9
:10002000000000000000000000000000ED280008B3
:10003000F92800080000000005290008112900081F
:10004000A9530008A9530008A9530008A9530008A0
:10005000A9530008A9530008A9530008A953000890
:10006000A9530008A9530008A9530008A953000880
:10007000A9530008A9530008A9530008A953000870
:10008000A953000831290008A9530008A953000802
:10009000A9530008A9530008A9530008A953000850
:1000A000A9530008A9530008A9530008A953000840
:1000B000A95300085D290008A9530008A9530008A6
:1000C000A9530008A9530008A9530008A953000820
:1000D000A9530008A953000849290008A95300089A
:1000E000A9530008A9530008A9530008A953000800
:1000F000A9530008A9530008A9530008A9530008F0
:10010000A9530008A9530008A9530008A9530008DF
:10011000A9530008A9530008A9530008A9530008CF
:10012000A9530008A9530008A9530008A9530008BF
:10013000A9530008A9530008A9530008A9530008AF
:10014000A9530008A9530008A95300081D29000855
:10015000A9530008A9530008A9530008A95300088F
:10016000A9530008A9530008A9530008A95300087F
:10017000A9530008A9530008A95300080000000073
:10018000A9530008A9530008044B05481B1A062B65
:1001900002D9044B03B11847704700BFDF090020A4
:1001A000DC0900200000000005490648091A8910F2
:1001B00001EBD171491002D0034B03B118477047CE
:1001C000DC090020DC0900200000000010B5064C0E
:1001D000237843B9FFF7D8FF044B13B10448AFF3BA
:1001E00000800123237010BDDC0900200000000006
:1001F000BCA3000808B5084B1BB108490848AFF379
:1002000000800848036813B9BDE80840CCE7064BF6
:10021000002BF9D09847F7E700000000E009002024
:10022000BCA30008D80900200000000080B582B0FF
:1002300000AF7860134A134B1B6A43F40033136218
:10024000104A104B1B6A23F40033136204210E483A
:1002500004F0D2FF08210C4804F0CEFF262003F062
:10026000C9FD084A074B1B6A43F480231362054A01
:10027000044B1B6A23F48023136200BF0837BD467A
:1002800080BD00BF003802400000024080B582B04F
:1002900000AF78607B68002B01D1012313E07B68FD
:1002A000022283F839207868FFF7C0FF7B680022BC
:1002B00083F83A207B68002283F839207B6800228B
:1002C00083F83820002318460837BD4680BD00BF9C
:1002D00080B586B000AFF860B9601346FB8000239C
:1002E0007B61FB6893F83930DBB27B617B69012B62
:1002F00002D07B69222B56D1BB68002B02D0FB8831
:10030000002B01D101234FE0FB6893F83830012B1B
:1003100001D1022348E0FB68012283F83820BA6843
:10032000FB681A62FB68FA889A84FB68FA88DA84A8
:10033000FB68002283F83A20FB6893F83930DBB27F
:10034000222B04D1FB68322283F8392003E0FB68BA
:10035000122283F83920FB681B6B154ADA63FB68AD
:100360001B6B144A1A64FB681B6B134A9A6407F1EF
:1003700008033B61FB68186B3B691968FB681B68E5
:1003800004331A46FB8806F01BF8FB681B68FA6802
:100390001268526942F080025A61FB68002283F8B9
:1003A0003820002300E0022318461837BD4680BDE0
:1003B000E10500086D0600088906000880B584B0D4
:1003C00000AF78600023FB600023BB607B681B6884
:1003D0001B6803F00103002B14BF01230023DBB2D1
:1003E000FB607B681B68DB6803F48073BB60FB68A1
:1003F000002B12D0BB68002B0FD07B681B681B68DA
:100400007B681B685B687B6893F83A30DBB243F02B
:100410000103DAB27B6883F83A207B681B681B68AB
:1004200003F00203002B14BF01230023DBB2FB60A7
:100430007B681B685B6903F00103BB60FB68002BF2
:1004400012D0BB68002B0FD07B681B681B687B68D1
:100450001B685B687B6893F83A30DBB243F00403B7
:10046000DAB27B6883F83A207B681B681B6803F06C
:100470000403002B14BF01230023DBB2FB607B6865
:100480001B685B6903F00103BB60FB68002B12D0A3
:10049000BB68002B0FD07B681B681B687B681B68E0
:1004A0005B687B6893F83A30DBB243F00203DAB260
:1004B0007B6883F83A207B681B681B6803F008039D
:1004C000002B14BF01230023DBB2FB607B681B6899
:1004D0005B6903F00103BB60FB68002B12D0BB68B3
:1004E000002B0FD07B681B681B687B681B685B68F0
:1004F0007B6893F83A30DBB243F00803DAB27B68EA
:1005000083F83A207B681B681B6803F02003002BEC
:1005100014BF01230023DBB2FB607B681B68DB6830
:1005200003F02003BB60FB68002B05D0BB68002BE9
:1005300002D0786800F0E6F97B681B681B6803F05E
:100540008003002B14BF01230023DBB2FB607B6818
:100550001B68DB6803F08003BB60FB68002B05D0E1
:10056000BB68002B02D0786800F04AF97B6893F8EA
:100570003A30DBB2002B06D07B68012283F83920A9
:10058000786800F023F800BF1037BD4680BD00BF7B
:1005900080B483B000AF786000BF0C37BD4680BC2C
:1005A000704700BF80B483B000AF786000BF0C37E5
:1005B000BD4680BC704700BF80B483B000AF786098
:1005C00000BF0C37BD4680BC704700BF80B483B00D
:1005D00000AF786000BF0C37BD4680BC704700BFDD
:1005E00080B584B000AF78607B689B6BFB607B68F4
:1005F0001B681B6803F48073002B2FD1FB6800225B
:10060000DA84FB681B68FA681268526922F080027B
:100610005A6145F2F05300224021F86800F056F884
:100620000346002B07D0FB68032283F83920F868C3
:10063000FFF7CCFF15E0FB6893F83930DBB2322BC3
:1006400004D1FB68222283F8392003E0FB680122F1
:1006500083F83920F868FFF79BFF02E0F868FFF79E
:1006600097FF00BF1037BD4680BD00BF80B584B086
:1006700000AF78607B689B6BFB60F868FFF792FFC8
:1006800000BF1037BD4680BD80B584B000AF786034
:100690007B689B6BFB60FB680022DA85FB680022AD
:1006A000DA84FB68012283F83920FB6893F83A303A
:1006B000DBB243F01003DAB2FB6883F83A20F86843
:1006C000FFF784FF00BF1037BD4680BD80B586B000
:1006D00000AFF860B9603B601346FB7100237B619B
:1006E00002F092F97861FB79002B7BD138E03B680E
:1006F000B3F1FF3F34D03B68002B07D002F084F900
:1007000002467B69D21A3B689A4229D9FB681B686A
:10071000FA681268D26822F08002DA60FB681B680F
:10072000FA681268D26822F02002DA60FB681B685F
:10073000FA681268D26822F48072DA60FB681B687B
:10074000FA681268526922F001025A61FB680122BC
:1007500083F83920FB68002283F8382003234AE01D
:10076000FB681B681A68BB681A40BB689A42BED116
:1007700040E03B68B3F1FF3F34D03B68002B07D02B
:1007800002F042F902467B69D21A3B689A4229D9A3
:10079000FB681B68FA681268D26822F08002DA608F
:1007A000FB681B68FA681268D26822F02002DA60DF
:1007B000FB681B68FA681268D26822F48072DA60FB
:1007C000FB681B68FA681268526922F001025A61DC
:1007D000FB68012283F83920FB68002283F8382067
:1007E000032308E0FB681B681A68BB681A40BB68F3
:1007F0009A42BED0002318461837BD4680BD00BFC0
:1008000080B584B000AF78600023FB607B6893F80C
:100810003930DBB2FB60FB68122B02D0FB68322B55
:100820006BD17B689B68B3F5805F19D17B681B6ACD
:10083000BB607B681B68BA681288C2F308025A6002
:100840007B681B69002B05D17B681B6A9A1C7B683F
:100850001A620EE07B681B6A5A1C7B681A6208E009
:100860007B681A687B681B6A581C796808621B7869
:1008700053607B68DB8C013B9AB27B68DA847B68CF
:10088000DB8C002B37D17B681B687A681268D268D2
:1008900022F08002DA607B6893F83930DBB2322BC9
:1008A00004D17B68222283F8392013E07B681B681F
:1008B0007A681268D26822F48072DA607B681B68FA
:1008C0007A681268526922F001025A617B6801223B
:1008D00083F8392045F2F053002240217868FFF771
:1008E000F5FE0346002B01D0032307E07868FFF7ED
:1008F0004FFE002302E0002300E0022318461037D9
:10090000BD4680BD80B584B000AF78600023FB6039
:100910007B6893F83930DBB2FB60FB68222B02D096
:10092000FB68322B7CD17B689B68B3F5805F23D159
:100930007B689B6ABB607B681B69002B0ED17B6860
:100940001B685B689BB2C3F308039AB2BB681A804A
:100950007B689B6A9A1C7B689A6229E07B681B68AB
:100960005B689BB2DBB29AB2BB681A807B689B6AF9
:100970005A1C7B689A621BE07B681B69002B0AD1BA
:100980007B689B6A591C7A6891627A68126852681F
:10099000D2B21A700CE07B689B6A591C7A6891622B
:1009A0007A6812685268D2B202F07F02D2B21A702C
:1009B0007B68DB8D013B9AB27B68DA857B68DB8DD7
:1009C000002B2BD17B681B687A681268D26822F0F2
:1009D0002002DA607B6893F83930DBB2322B04D125
:1009E0007B68122283F8392013E07B681B687A68E1
:1009F0001268D26822F48072DA607B681B687A68B9
:100A00001268526922F001025A617B68012283F860
:100A100039207868FFF7D0FD002302E0002300E0D2
:100A2000022318461037BD4680BD00BF80B582B096
:100A300000AF78607B68002B01D1012319E07B684F
:100A400093F83930DBB2002B02D1786800F016F849
:100A50007B68022283F839207B681A687B6804333C
:100A60001946104600F05EF97B68012283F83920B0
:100A7000002318460837BD4680BD00BF80B483B050
:100A800000AF786000BF0C37BD4680BC704700BF28
:100A900080B483B000AF78607B681B687A681268A6
:100AA000D26842F00102DA607B681B687A681268DB
:100AB000126842F001021A60002318460C37BD4646
:100AC00080BC704780B582B000AF78607B681B68DF
:100AD0001B6903F00203002B22D07B681B68DB68D4
:100AE00003F00203002B1BD07B681B686FF002022F
:100AF0001A617B6801221A767B681B689B6903F088
:100B00000303002B03D0786800F0EEF805E0786866
:100B100000F0E0F8786800F0F1F87B6800221A76BF
:100B20007B681B681B6903F00403002B22D07B68E1
:100B30001B68DB6803F00403002B1BD07B681B6879
:100B40006FF004021A617B6802221A767B681B68C8
:100B50009B6903F44073002B03D0786800F0C4F85D
:100B600005E0786800F0B6F8786800F0C7F87B68B0
:100B700000221A767B681B681B6903F00803002BB0
:100B800022D07B681B68DB6803F00803002B1BD0B6
:100B90007B681B686FF008021A617B6804221A7672
:100BA0007B681B68DB6903F00303002B03D07868C4
:100BB00000F09AF805E0786800F08CF8786800F0AA
:100BC0009DF87B6800221A767B681B681B6903F01E
:100BD0001003002B22D07B681B68DB6803F0100336
:100BE000002B1BD07B681B686FF010021A617B68BA
:100BF00008221A767B681B68DB6903F44073002BBC
:100C000003D0786800F070F805E0786800F062F8CA
:100C1000786800F073F87B6800221A767B681B689E
:100C20001B6903F00103002B0ED07B681B68DB6897
:100C300003F00103002B07D07B681B686FF00102F3
:100C40001A61786804F0A8FE7B681B681B6903F0D2
:100C50008003002B0ED07B681B68DB6803F08003E9
:100C6000002B07D07B681B686FF080021A617868E0
:100C700004F036FF7B681B681B6903F04003002B00
:100C80000ED07B681B68DB6803F04003002B07D0A5
:100C90007B681B686FF040021A61786800F038F8D2
:100CA0007B681B681B6903F02003002B0ED07B6858
:100CB0001B68DB6803F02003002B07D07B681B68F0
:100CC0006FF020021A61786804F000FF00BF083757
:100CD000BD4680BD80B483B000AF786000BF0C37E4
:100CE000BD4680BC704700BF80B483B000AF786061
:100CF00000BF0C37BD4680BC704700BF80B483B0D6
:100D000000AF786000BF0C37BD4680BC704700BFA5
:100D100080B483B000AF786000BF0C37BD4680BCA4
:100D2000704700BF80B485B000AF786039600023A1
:100D3000FB607B681B68FB607B68434A934213D06F
:100D40007B68B3F1804F0FD07B68404A93420BD051
:100D50007B683F4A934207D07B683E4A934203D068
:100D60007B683D4A934201D1012300E00023002B20
:100D700008D0FB6823F07003FB603B685B68FA688F
:100D80001343FB607B68304A93422BD07B68B3F1FE
:100D9000804F27D07B682D4A934223D07B682C4A12
:100DA00093421FD07B682B4A93421BD07B682A4A10
:100DB000934217D07B68294A934213D07B68284A14
:100DC00093420FD07B68274A93420BD07B68264A18
:100DD000934207D07B68254A934203D07B68244A1C
:100DE000934201D1012300E00023002B08D0FB68CF
:100DF00023F44073FB603B68DB68FA681343FB60D5
:100E00007B68FA681A603B689A687B68DA623B68BC
:100E10001A687B689A627B680B4A934203D07B68AE
:100E20000D4A934201D1012300E00023002B03D09F
:100E30003B681A697B681A637B6801225A6100BFAC
:100E40001437BD4680BC70470000014000040040DC
:100E500000080040000C0040000401400040014038
:100E6000004401400048014000180040001C0040C0
:100E70000020004084B080B582B000AF786007F1F8
:100E8000140080E80E00BB6A012B20D17B689B6BAD
:100E900023F480327B689A637B68DB6823F48403E5
:100EA00023F040037A68D3607B68DB6823F4401248
:100EB0007B68DA60FB6B012B05D17B68DB6843F450
:100EC00080127B68DA60786801F072F90CE07B6868
:100ED000DB6843F040027B68DA60786801F068F90B
:100EE0007B684FF480329A633B6A012B0BD17B689D
:100EF0009B6843F00C027B689A607B689B6843F0B8
:100F000020027B689A60002318460837BD46BDE87A
:100F1000804004B0704700BF80B483B000AF7860F9
:100F20007B689B6843F001027B689A600023184647
:100F30000C37BD4680BC704780B483B000AF78608A
:100F40007B689B6823F001027B689A600023184647
:100F50000C37BD4680BC704780B582B000AF78606A
:100F60000B46FB707B68DB6823F0C0427B68DA606D
:100F7000FB78012B06D17B68DB6843F000527B686D
:100F8000DA6008E0FB78002B05D17B68DB6843F072
:100F900080427B68DA60322001F040FD0023184671
:100FA0000837BD4680BD00BF84B080B584B000AFB7
:100FB000786007F11C0080E80E000023FB607B686E
:100FC0009B6B43F400227B689A63FB6B002B05D17B
:100FD0007B689B6B43F400127B689A637B6803F524
:100FE00060631A46002313607B6803F500631A46AA
:100FF0007B6803F500631B6813603B6B012B0CD10E
:101000007B6A002B04D10021786800F03DF908E0EC
:101010000121786800F038F903E00321786800F0D6
:1010200033F91021786800F0EBF8786800F00CF9DB
:101030007B6803F500631A46002313617B6803F5A0
:1010400000631A46002353617B6803F500631A4668
:101050004FF0FF3393617B6803F500631A4600236A
:10106000D3610023FB6031E0FB685A017B681344C5
:1010700003F510631B68002B0ADAFB685A017B68D2
:10108000134403F510631A464FF09043136008E0D1
:10109000FB685A017B68134403F510631A4600236A
:1010A0001360FB685A017B68134403F510631A460A
:1010B00000231361FB685A017B68134403F5106336
:1010C0001A46FF239360FB680133FB60FA69FB68F3
:1010D0009A42C9D80023FB6031E0FB685A017B6863
:1010E000134403F530631B68002B0ADAFB685A01CE
:1010F0007B68134403F530631A464FF09043136046
:1011000008E0FB685A017B68134403F530631A4614
:1011100000231360FB685A017B68134403F53063B6
:101120001A4600231361FB685A017B68134403F5D8
:1011300030631A46FF239360FB680133FB60FA6952
:10114000FB689A42C9D87B6803F500631A467B683E
:1011500003F500631B6923F480731361BB6A012BE1
:1011600017D17B6803F500631A46234B13637B6832
:1011700003F500631A467B6803F500631B6B43F4B9
:10118000803343F0030313637B6803F500631B6B39
:10119000FB607B6800229A617B686FF080425A6135
:1011A000BB6A002B05D17B689B6943F010027B680A
:1011B0009A617B689A69114B13437A6893617B6BE0
:1011C000002B05D07B689B6943F008027B689A611D
:1011D000FB6B012B07D17B689B6943F0804343F095
:1011E00004037A689361002318461037BD46BDE8B2
:1011F000804004B0704700BF0001800000383C8090
:1012000080B485B000AF786039600023FB603B6834
:101210005B0143F020027B681A61FB680133FB60CD
:10122000FB68084A934201D9032306E07B681B69E7
:1012300003F02003002BF0D1002318461437BD46DD
:1012400080BC7047400D030080B485B000AF78606B
:101250000023FB607B6810221A61FB680133FB608E
:10126000FB68084A934201D9032306E07B681B69A7
:1012700003F01003002BF0D1002318461437BD46AD
:1012800080BC7047400D030080B483B000AF78602D
:101290000B46FB707B6803F5006319467B6803F51A
:1012A00000631A68FB7813430B60002318460C3761
:1012B000BD4680BC704700BF80B485B000AF786089
:1012C0000023FB737B6803F500639B6803F0060350
:1012D000002B02D10023FB731CE07B6803F5006345
:1012E0009B6803F00603022B07D07B6803F50063BD
:1012F0009B6803F00603062B02D10323FB7309E06E
:101300007B6803F500639B6803F00603042B01D19F
:101310000223FB73FB7B18461437BD4680BC704725
:1013200080B483B000AF786039603B685B78012B94
:101330003ED17B6803F5006319467B6803F50063C3
:10134000DA693B681B781846012383409BB213433C
:10135000CB613B681B785A017B68134403F510632B
:101360001B6803F40043002B5CD13B681B785A01D7
:101370007B68134403F5106318463B681B785A01D9
:101380007B68134403F510631A683B689B68C3F3DA
:101390000A033968C97889040B43396809788905D3
:1013A0000B43134343F0805343F40043036039E09D
:1013B0007B6803F5006319467B6803F50063DB690E
:1013C0003A68127810460122824012041343CB611E
:1013D0003B681B785A017B68134403F530631B6834
:1013E00003F40043002B1DD13B681B785A017B6836
:1013F000134403F5306318463B681B785A017B6839
:10140000134403F530631A683B689B68C3F30A030F
:101410003968C97889040B43134343F0805343F47C
:1014200000430360002318460C37BD4680BC70475C
:1014300080B483B000AF786039603B685B78012B83
:1014400035D17B6803F5006319467B6803F50063BB
:10145000DA6B3B681B781846012383409BB2DB4361
:101460001340CB637B6803F5006319467B6803F583
:101470000063DA693B681B781846012383409BB2FE
:10148000DB431340CB613B681B785A017B681344F4
:1014900003F5106319463B681B785A017B681344B7
:1014A00003F510631B6823F400430B6034E07B6892
:1014B00003F5006319467B6803F50063DA6B3B684C
:1014C0001B781846012383401B04DB431340CB6386
:1014D0007B6803F5006319467B6803F50063DA69EE
:1014E0003B681B781846012383401B04DB431340F1
:1014F000CB613B681B785A017B68134403F530636A
:1015000019463B681B785A017B68134403F5306326
:101510001B6823F400430B60002318460C37BD46BC
:1015200080BC704780B588B002AFF860B9601346E0
:10153000FB710023FB82BB685B78012B40F0468186
:10154000BB685B69002B3BD1BB681B785A01FB6809
:10155000134403F510631946BB681B785A01FB68F6
:10156000134403F510631B6923F0FF5323F4C013E6
:101570000B61BB681B785A01FB68134403F51063C9
:101580001946BB681B785A01FB68134403F51063C6
:101590001B6943F400230B61BB681B785A01FB688D
:1015A000134403F510631946BB681B785A01FB68A6
:1015B000134403F510631B69DB0CDB040B6186E04D
:1015C000BB681B785A01FB68134403F51063194686
:1015D000BB681B785A01FB68134403F510631B6951
:1015E000DB0CDB040B61BB681B785A01FB681344FE
:1015F00003F510631946BB681B785A01FB68134456
:1016000003F510631B6923F0FF5323F4C0130B6130
:10161000BB681B785A01FB68134403F51063184636
:10162000BB681B785A01FB68134403F510631A6901
:10163000BB685969BB689B680B44591EBB689B68B3
:10164000B1FBF3F3D9048C4B0B4013430361BB682C
:101650001B785A01FB68134403F510631946BB68F5
:101660001B785A01FB68134403F510631A69BB68C1
:101670005B69C3F3120313430B61BB68DB78012B77
:1016800025D1BB681B785A01FB68134403F510632E
:101690001946BB681B785A01FB68134403F51063B5
:1016A0001B6923F0C0430B61BB681B785A01FB68C0
:1016B000134403F510631946BB681B785A01FB6895
:1016C000134403F510631B6943F000530B61FB796E
:1016D000012B0BD1BB681B785A01FB68134403F53F
:1016E00010631A46BB681B69536116E0BB68DB7860
:1016F000012B12D0BB685B69002B0ED0FB6803F591
:1017000000631946FB6803F500635B6BBA681278E7
:1017100010460122824013434B63BB68DB78012BE8
:101720002ED1FB6803F500639B6803F48073002BE4
:1017300013D1BB681B785A01FB68134403F510638F
:101740001946BB681B785A01FB68134403F5106304
:101750001B6843F000530B6012E0BB681B785A0112
:10176000FB68134403F510631946BB681B785A01E4
:10177000FB68134403F510631B6843F080530B6050
:10178000BB681B785A01FB68134403F510631946C4
:10179000BB681B785A01FB68134403F510631B6890
:1017A00043F004430B60BB68DB78012B40F0F5800D
:1017B000BB68D968BB681A78BB685B6998B2FB796B
:1017C00000930346F86800F04DFAE6E0BB681B782A
:1017D0005A01FB68134403F530631946BB681B7854
:1017E0005A01FB68134403F530631B69DB0CDB040F
:1017F0000B61BB681B785A01FB68134403F5306327
:101800001946BB681B785A01FB68134403F5306323
:101810001B6923F0FF5323F4C0130B61BB685B69A2
:10182000002B2BD1BB681B785A01FB68134403F5CE
:1018300030631946BB681B785A01FB68134403F5F3
:1018400030631A69BB689B68C3F3120313430B61CF
:10185000BB681B785A01FB68134403F530631946D3
:10186000BB681B785A01FB68134403F530631B699E
:1018700043F400230B613CE00000F81FBB685A6989
:10188000BB689B6813445A1EBB689B68B2FBF3F3AA
:10189000FB82BB681B785A01FB68134403F5306375
:1018A0001946BB681B785A01FB68134403F5306383
:1018B0001A69FB8ADB0418463A4B034013430B6159
:1018C000BB681B785A01FB68134403F53063184664
:1018D000BB681B785A01FB68134403F530631A692F
:1018E000BB689B68F98A01FB03F3C3F3120313433C
:1018F0000361FB79012B0AD1BB681B785A01FB6895
:10190000134403F530631A46BB68DB685361BB6858
:10191000DB78012B2ED1FB6803F500639B6803F491
:101920008073002B13D1BB681B785A01FB681344EA
:1019300003F530631946BB681B785A01FB681344F2
:1019400003F530631B6843F000530B6012E0BB6883
:101950001B785A01FB68134403F530631946BB68D2
:101960001B785A01FB68134403F530631B6843F08E
:1019700080530B60BB681B785A01FB68134403F566
:1019800030631946BB681B785A01FB68134403F5A2
:1019900030631B6843F004430B600023184618377C
:1019A000BD4680BD0000F81F80B485B000AFF86070
:1019B000B9601346FB71BB685B78012B40F0D180A6
:1019C000BB685B69002B3BD1BB681B785A01FB6885
:1019D000134403F510631946BB681B785A01FB6872
:1019E000134403F510631B6923F0FF5323F4C01362
:1019F0000B61BB681B785A01FB68134403F5106345
:101A00001946BB681B785A01FB68134403F5106341
:101A10001B6943F400230B61BB681B785A01FB6808
:101A2000134403F510631946BB681B785A01FB6821
:101A3000134403F510631B69DB0CDB040B615AE0F4
:101A4000BB681B785A01FB68134403F51063194601
:101A5000BB681B785A01FB68134403F510631B69CC
:101A6000DB0CDB040B61BB681B785A01FB68134479
:101A700003F510631946BB681B785A01FB681344D1
:101A800003F510631B6923F0FF5323F4C0130B61AC
:101A9000BB685A69BB689B689A4203D9BB689A685D
:101AA000BB685A61BB681B785A01FB68134403F595
:101AB00010631946BB681B785A01FB68134403F591
:101AC00010631B6943F400230B61BB681B785A0148
:101AD000FB68134403F510631946BB681B785A0171
:101AE000FB68134403F510631A69BB685B69C3F3B1
:101AF000120313430B61FB79012B0BD1BB681B78DD
:101B00005A01FB68134403F510631A46BB681B694E
:101B1000536112E0BB685B69002B0ED0FB6803F5D4
:101B200000631946FB6803F500635B6BBA681278C3
:101B300010460122824013434B63BB681B785A0155
:101B4000FB68134403F510631946BB681B785A0100
:101B5000FB68134403F510631B6843F004430B60F8
:101B600079E0BB681B785A01FB68134403F53063C6
:101B70001946BB681B785A01FB68134403F53063B0
:101B80001B69DB0CDB040B61BB681B785A01FB682B
:101B9000134403F530631946BB681B785A01FB6890
:101BA000134403F530631B6923F0FF5323F4C01380
:101BB0000B61BB685B69002B03D0BB689A68BB688C
:101BC0005A61BB681B785A01FB68134403F5306304
:101BD0001946BB681B785A01FB68134403F5306350
:101BE0001B6943F400230B61BB681B785A01FB6837
:101BF000134403F530631946BB681B785A01FB6830
:101C0000134403F530631A69BB689B68C3F312037E
:101C100013430B61FB79012B0AD1BB681B785A0176
:101C2000FB68134403F530631A46BB68DB685361F5
:101C3000BB681B785A01FB68134403F530631946EF
:101C4000BB681B785A01FB68134403F530631B68BB
:101C500043F004430B60002318461437BD4680BC94
:101C6000704700BF80B487B000AFF860B96011461C
:101C70001A460B46FB711346BB8000233B610023D1
:101C80007B6197F82030002B1DD1BB880333002BDC
:101C900000DA03339B103B6100237B610FE0FB798B
:101CA0001A03FB68134403F580531A46BB681B688C
:101CB00013607B6901337B61BB680433BB607A6965
:101CC0003B699A42EBD3002318461C37BD4680BCC3
:101CD000704700BF80B487B000AFF860B9601346AA
:101CE000FB8000237B61FB880333002B00DA033386
:101CF0009B103B6100237B610BE0FB6803F5805385
:101D00001A68BB681A607B6901337B61BB68043366
:101D1000BB607A693B699A42EFD3BB6818461C37AF
:101D2000BD4680BC704700BF80B483B000AF786010
:101D300039603B685B78012B30D13B681B785A01D6
:101D40007B68134403F510631B68002B12DB3B68B0
:101D50001B785A017B68134403F5106319463B68EE
:101D60001B785A017B68134403F510631B6823F04A
:101D700080430B603B681B785A017B68134403F572
:101D8000106319463B681B785A017B68134403F5BE
:101D900010631B6843F400130B602FE03B681B7853
:101DA0005A017B68134403F530631B68002B12DB78
:101DB0003B681B785A017B68134403F5306319466E
:101DC0003B681B785A017B68134403F530631B683A
:101DD00023F080430B603B681B785A017B681344F7
:101DE00003F5306319463B681B785A017B6813443E
:101DF00003F530631B6843F400130B60002318469F
:101E00000C37BD4680BC704780B483B000AF7860AB
:101E100039603B685B78012B2ED13B681B785A01F7
:101E20007B68134403F5106319463B681B785A011D
:101E30007B68134403F510631B6823F400130B60E5
:101E40003B68DB78032B03D03B68DB78022B41D166
:101E50003B681B785A017B68134403F510631946ED
:101E60003B681B785A017B68134403F510631B68B9
:101E700043F080530B602DE03B681B785A017B6870
:101E8000134403F5306319463B681B785A017B689D
:101E9000134403F530631B6823F400130B603B68A5
:101EA000DB78032B03D03B68DB78022B12D13B6835
:101EB0001B785A017B68134403F5306319463B686D
:101EC0001B785A017B68134403F530631B6843F0A9
:101ED00080530B60002318460C37BD4680BC70470A
:101EE00080B483B000AF78600B46FB707B6803F56D
:101EF00000631A467B6803F500631B6823F4FE63E6
:101F000013607B6803F5006319467B6803F5006383
:101F10001A68FB781B0103F4FE6313430B60002374
:101F200018460C37BD4680BC704700BF80B582B0F4
:101F300000AF78607B6803F500631A467B6803F5A1
:101F400000635B6823F002035360032000F066FD2A
:101F5000002318460837BD4680BD00BF80B582B05B
:101F600000AF78607B6803F500631A467B6803F571
:101F700000635B6843F002035360032000F04EFDF2
:101F8000002318460837BD4680BD00BF80B485B029
:101F900000AF78600023FB607B685B69FB607B6857
:101FA0009B69FA681340FB60FB6818461437BD460E
:101FB00080BC704780B485B000AF78607B6803F563
:101FC00000639B69FB607B6803F50063DB69FA686B
:101FD0001340FB60FB681B0C18461437BD4680BCE1
:101FE000704700BF80B485B000AF78607B6803F5B0
:101FF00000639B69FB607B6803F50063DB69FA683B
:102000001340FB60FB689BB218461437BD4680BC8A
:10201000704700BF80B485B000AF78600B46FB709E
:10202000FB785A017B68134403F530639B68FB60BF
:102030007B6803F500635B69FA681340FB60FB682B
:1020400018461437BD4680BC704700BF80B487B0C7
:1020500000AF78600B46FB707B6803F500631B697B
:102060007B617B6803F500635B6B3B61FB783A69DE
:1020700022FA03F3DB01DBB27A6913437B61FB785D
:102080005A017B68134403F510639A687B69134017
:10209000FB60FB6818461C37BD4680BC704700BF1C
:1020A00080B483B000AF78607B685B6903F00103A4
:1020B00018460C37BD4680BC704700BF80B483B063
:1020C00000AF78607B6803F510631A467B6803F500
:1020D00010631B6823F4FF6323F0070313607B681E
:1020E00003F500639B6803F00603042B0AD17B68A9
:1020F00003F510631A467B6803F510631B6843F011
:10210000030313607B6803F500631A467B6803F5DD
:1021100000635B6843F480735360002318460C37F8
:10212000BD4680BC704700BF80B485B000AFF8608A
:102130000B467A60FB72FB6803F530631A46002396
:102140001361FB6803F530631A46FB6803F53063DF
:102150001B6943F400231361FB6803F530631A46DF
:10216000FB6803F530631B6943F018031361FB68D8
:1021700003F530631A46FB6803F530631B6943F0CF
:10218000C0431361FB7A012B0CD1FB6803F530636C
:102190001A467B685361FB6803F530631A464FF0BB
:1021A00080231360002318461437BD4680BC704757
:1021B00080B485B000AF78600023FB60FB6801331A
:1021C000FB60FB68124A934201D903231BE07B6842
:1021D0001B69002BF2DA0023FB607B681B6943F06C
:1021E00001027B681A61FB680133FB60FB68084AE7
:1021F000934201D9032306E07B681B6903F00103C6
:10220000002BF0D1002318461437BD4680BC704720
:10221000400D030080B584B000AFF860B96013468C
:10222000FB71FB68002B01D102231AE0FB68D3F895
:102230001432002B03D0FB680022C3F81422BB68C1
:10224000002B03D0FB68BA68C3F81022FB68012298
:1022500083F8FC21FB68FA791A70F86800F00AFF2D
:10226000002318461037BD4680BD00BF80B485B03E
:1022700000AF786039600023FB733B68002B06D009
:102280007B683A68C3F814220023FB7301E0022341
:10229000FB73FB7B18461437BD4680BC704700BFFC
:1022A00080B582B000AF7860786800F02BFF002323
:1022B00018460837BD4680BD80B483B000AF786053
:1022C000002318460C37BD4680BC704780B584B0EB
:1022D00000AF78600B46FB700223FB737B68D3F87A
:1022E0001432002B0CD07B68D3F814321B68FA78B8
:1022F0001146786898470346002B01D10023FB73F1
:10230000FB7B18461037BD4680BD00BF80B582B04C
:1023100000AF78600B46FB707B68D3F814325B68C3
:10232000FA78114678689847002318460837BD4662
:1023300080BD00BF80B582B000AF786039607B6837
:1023400003F502733968184603F08AFF7B6801229F
:10235000C3F8F4217B68B3F80E321A467B68C3F8E1
:10236000F8217B6893F8083203F01F03012B0BD090
:10237000022B11D0002B17D17B6803F5027319468D
:10238000786803F0B7FB1AE07B6803F5027319461F
:10239000786803F0FFFB12E07B6803F502731946CF
:1023A000786803F02BFC0AE07B6893F8083223F08E
:1023B0007F03DBB21946786800F0E2FE00BF00231D
:1023C00018460837BD4680BD80B586B000AFF860BE
:1023D0000B467A60FB72FB7A002B38D1FB6803F561
:1023E00082737B61FB68D3F8F431032B42D17B69A4
:1023F0009A687B69DB689A4214D97B699A687B6921
:10240000DB68D21A7B699A607B69DA687B699B68B2
:10241000934228BF13469BB21A467968F86807F0C2
:1024200001FA27E0FB68D3F814321B69002B0AD0AD
:10243000FB6893F8FC31032B05D1FB68D3F8143209
:102440001B69F8689847F86807F0FEF912E0FB6826
:10245000D3F814329B69002B0CD0FB6893F8FC3145
:10246000032B07D1FB68D3F814329B69FA7A114623
:10247000F8689847002318461837BD4680BD00BF4E
:1024800080B586B000AFF8600B467A60FB72FB7ACD
:10249000002B6CD1FB6814337B61FB68D3F8F431FB
:1024A000022B57D17B699A687B69DB689A4215D900
:1024B0007B699A687B69DB68D21A7B699A607B6961
:1024C0009B689BB21A467968F86807F07BF900238D
:1024D00000220021F86800F0D3FE3BE07B695B68D6
:1024E0007A69D268B3FBF2F102FB01F29B1A002B6E
:1024F0001CD17B695A687B69DB689A4216D37B6979
:102500005A68FB68D3F8F8319A420FD200220021B2
:10251000F86807F057F9FB680022C3F8F821002398
:1025200000220021F86800F0ABFE13E0FB68D3F84E
:102530001432DB68002B0AD0FB6893F8FC31032BC4
:1025400005D1FB68D3F81432DB68F8689847F8685F
:1025500007F08EF9FB6893F80032012B1AD1F86866
:10256000FFF7AAFEFB68002283F8002212E0FB6856
:10257000D3F814325B69002B0CD0FB6893F8FC3164
:10258000032B07D1FB68D3F814325B69FA7A114642
:10259000F8689847002318461837BD4680BD00BF2D
:1025A00080B582B000AF78604023002200217868B7
:1025B00000F0B8FD7B684022C3F8102140230022C0
:1025C0008021786800F0AEFD7B6840221A627B684B
:1025D000012283F8FC217B68D3F81832002B09D044
:1025E0007B68D3F814325B687A685268D2B21146BD
:1025F00078689847002318460837BD4680BD00BF5D
:1026000080B483B000AF78600B46FB707B68FA78CB
:102610001A74002318460C37BD4680BC704700BFB3
:1026200080B483B000AF78607B6893F8FC217B684E
:1026300083F8FD217B68042283F8FC2100231846DF
:102640000C37BD4680BC704780B483B000AF786063
:102650007B6893F8FD217B6883F8FC2100231846F2
:102660000C37BD4680BC704780B582B000AF786043
:102670007B6893F8FC31032B0BD17B68D3F81432C1
:10268000DB69002B05D07B68D3F81432DB697868EE
:102690009847002318460837BD4680BD80B483B0F4
:1026A00000AF78600B46FB70002318460C37BD4620
:1026B00080BC704780B483B000AF78600B46FB707D
:1026C000002318460C37BD4680BC704780B483B0E9
:1026D00000AF7860002318460C37BD4680BC7047B9
:1026E00080B582B000AF78607B68012283F8FC215E
:1026F0007B68D3F814325B687A685268D2B21146AC
:1027000078689847002318460837BD4680BD00BF4B
:10271000B0B588B000AF00F02BF900F073F8314A83
:10272000304B1B6B43F0080313632F4B4FF478427D
:102730001A602D4B01225A602B4B00229A602A4BC3
:102740000222DA602849294802F0B4FB0022284915
:102750002848FFF75FFD28492648FFF787FD2749EE
:10276000244802F0CBFF2348FFF79AFD244B3C4658
:102770001D460FCD0FC495E80F0084E80F004FF4FD
:1027800000611A4802F0D6FD642000F047F94FF4CA
:102790008051164802F0CEFD642000F03FF94FF45E
:1027A0000051124802F0C6FD642000F037F94FF4E2
:1027B00080410E4802F0BEFD642000F02FF94FF476
:1027C00000410A4802F0B6FD642000F027F93B46BC
:1027D000184607F075FB02463B461146184603F0C3
:1027E00039F9CCE700380240680C0020000C0240A8
:1027F00000000020440A0020700000207C0100201E
:102800000CA3000880B592B000AF274A264B1B6C82
:1028100043F080531364254A244B1B6843F4404320
:10282000136001237B600123BB600223FB614FF433
:1028300080033B6208237B624FF4A873BB620223D0
:10284000FB6207233B633B1D184600F045FD034632
:10285000002B01D000F02EF80F237B630223BB6313
:102860000023FB634FF4A0533B644FF480537B641D
:1028700007F134030521184600F086FF0346002BBC
:1028800001D000F017F800F0DFF8024641F2010332
:102890009A4205D1064A064B1B6843F480731360C5
:1028A00000BF4837BD4680BD003802400070004080
:1028B000003C024080B400AF00BFBD4680BC704702
:1028C00080B400AF00BFBD4680BC704780B400AF8D
:1028D000FEE700BF80B400AFFEE700BF80B400AFEA
:1028E000FEE700BF80B400AFFEE700BF80B400AFDA
:1028F00000BFBD4680BC704780B400AF00BFBD467E
:1029000080BC704780B400AF00BFBD4680BC70473C
:1029100080B500AF00F06AF800BF80BD80B500AFA1
:10292000024801F0F3FB00BF80BD00BF7C0D00201A
:1029300080B500AF034B1B6B184603F09BFD00BF37
:1029400080BD00BF3011002080B500AF0248FDF708
:1029500035FD00BF80BD00BF3011002080B500AF45
:102960000248FEF7AFF800BF80BD00BF6C21002019
:1029700080B500AF0E4A0E4B1B6843F40073136022
:102980000B4A0B4B1B6843F480631360084A084BE7
:102990001B6843F480731360032001F0F5F90F20E6
:1029A00000F008F803F006FD0023184680BD00BFC4
:1029B000003C024080B582B000AF786001F0D6F8EC
:1029C0000246094BA3FB02239B09184601F020FA9B
:1029D000002279684FF0FF3001F0E2F90023184639
:1029E0000837BD4680BD00BFD34D621080B400AF34
:1029F000044B1B680133034A136000BFBD4680BC13
:102A0000704700BFF809002080B400AF024B1B687C
:102A10001846BD4680BC7047F809002080B584B0D8
:102A200000AF78600023FB60FFF7EEFFF86000BFA7
:102A3000FFF7EAFF0246FB68D21A7B689A42F7D397
:102A400000BF1037BD4680BD80B400AF034B1B688C
:102A50001B0C1846BD4680BC704700BF002004E038
:102A600080B483B000AF03463960FB713B6812222B
:102A70001A80034B18460C37BD4680BC704700BF18
:102A80001C00002080B483B000AF03463960FB71A6
:102A90003B6804221A80034B18460C37BD4680BCA5
:102AA000704700BF3000002080B582B000AF034601
:102AB0003960FB71FB79002B05D13A68074908485A
:102AC00003F01CFC04E03A680449064803F016FCD5
:102AD000024B18460837BD4680BD00BF7C0C002065
:102AE0002CA3000850A3000880B582B000AF0346B5
:102AF0003960FB713A680449044803F0FFFB024B5C
:102B000018460837BD4680BD7C0C002074A3000821
:102B100080B582B000AF03463960FB713B681A2272
:102B20001A8000F043F8024B18460837BD4680BDB6
:102B30003400002080B582B000AF03463960FB71DD
:102B4000FB79002B05D13A680749084803F0D6FB0A
:102B500004E03A680449054803F0D0FB024B1846EC
:102B60000837BD4680BD00BF7C0C002088A300084C
:102B700080B582B000AF03463960FB71FB79002B52
:102B800005D13A680749084803F0B8FB04E03A6801
:102B90000449054803F0B2FB024B18460837BD460E
:102BA00080BD00BF7C0C002094A3000880B584B0D9
:102BB00000AF0F4B1B68FB600E4B1B68BB600E4BDE
:102BC0001B687B60FA687B681344FB60FB68002B22
:102BD00009D008220949F86800F014F804220849CD
:102BE000B86800F00FF800BF1037BD4680BD00BFC9
:102BF000107AFF1F147AFF1F187AFF1F360000207B
:102C00004600002080B487B000AFF860B96013467A
:102C1000FB710023FB750023FB7527E0FB681B0F8E
:102C2000092B0BD8FB7D5B001A46BB681344FA687E
:102C3000120FD2B23032D2B21A700AE0FB7D5B00C2
:102C40001A46BB681344FA68120FD2B23732D2B2B6
:102C50001A70FB681B01FB60FB7D5B000133BA68E7
:102C6000134400221A70FB7D0133FB75FA7DFB795A
:102C70009A42D3D300BF1C37BD4680BC704700BF0B
:102C800080B483B000AF03463960FB7197F9073019
:102C9000002B0BDA0D49FB7903F00F03043B3A6874
:102CA000D2B21201D2B20B441A7609E0084997F960
:102CB00007303A68D2B21201D2B20B4483F8002333
:102CC00000BF0C37BD4680BC704700BF00ED00E080
:102CD00000E100E080B588B000AF78607B681B68D9
:102CE000B3F1A04F47D16F4A6E4B1B6B43F001030A
:102CF00013634FF4C053FB6002233B6100237B61ED
:102D00000323BB610A23FB6107F10C0319466648E4
:102D100002F0D0F84FF40073FB6000233B61002306
:102D20007B6107F10C0319465F4802F0C3F84FF4CA
:102D30008063FB6012233B6101237B610A23FB61FB
:102D400007F10C031946584802F0B4F8554A554BA0
:102D50005B6B43F080035363524A524B5B6C43F40A
:102D60008043536400220621432001F019F84320D8
:102D700001F032F891E07B681B684C4A934240F0C6
:102D80008C80484A474B1B6B43F001031363454A51
:102D9000444B1B6B43F002031363424A414B1B6BD2
:102DA00043F0040313633F4A3E4B1B6B43F0800325
:102DB00013633C4A3B4B1B6B43F480731363202328
:102DC000FB6002233B6100237B610323BB610A2379
:102DD000FB6107F10C031946334802F06BF8082336
:102DE000FB6002233B6100237B610323BB610A2359
:102DF000FB6107F10C0319462B4802F05BF843F620
:102E00002343FB6002233B6100237B610A23FB61B8
:102E100007F10C031946264802F04CF80123FB6029
:102E200002233B6100237B610A23FB6107F10C0352
:102E30001946204802F03EF81023FB6002233B6154
:102E400000237B610A23FB6107F10C0319461A4832
:102E500002F030F84FF40063FB6002233B61002373
:102E60007B610A23FB6107F10C031946134802F04A
:102E700021F80C4A0B4B1B6B43F000531363094AB8
:102E8000084B1B6B43F080431363002206214D2047
:102E900000F086FF4D2000F09FFF00BF2037BD46A9
:102EA00080BD00BF00380240000002400000044026
:102EB0000004024000080240001C024000200240C2
:102EC00080B582B000AF78607B68D3F8AC237B68B4
:102ED00003F55F7319461046FFF72CFA00BF083759
:102EE000BD4680BD80B582B000AF78600B46FB70F8
:102EF0007B68D3F8AC03FA7879681346DB009B1A39
:102F00009B000B4403F5F0731A68FB781946FFF732
:102F10005BFA00BF0837BD4680BD00BF80B582B0F8
:102F200000AF78600B46FB707B68D3F8AC03FA788F
:102F300079681346DB009B1A9B000B443C331A68EC
:102F4000FB781946FFF79CFA00BF0837BD4680BDE5
:102F500080B582B000AF78607B68D3F8AC33184698
:102F6000FFF782FB00BF0837BD4680BD80B584B047
:102F700000AF78600123FB737B68DB68002B02D015
:102F8000022B03D005E00023FB7305E00123FB7354
:102F900002E00123FB7300BF7B68D3F8AC33FA7BFC
:102FA00011461846FFF72CFB7B68D3F8AC33184664
:102FB000FFF7F6FA00BF1037BD4680BD80B582B07E
:102FC00000AF78607B68D3F8AC331846FFF728FB76
:102FD00000BF0837BD4680BD80B582B000AF7860C5
:102FE0007B68D3F8AC331846FFF72EFB00BF0837D9
:102FF000BD4680BD80B582B000AF78600B46FB70E7
:103000007B68D3F8AC33FA7811461846FFF752FBC9
:1030100000BF0837BD4680BD80B582B000AF786084
:103020000B46FB707B68D3F8AC33FA781146184630
:10303000FFF734FB00BF0837BD4680BD80B582B0C6
:1030400000AF78607B68D3F8AC331846FFF73EFBDF
:1030500000BF0837BD4680BD80B582B000AF786044
:103060007B68D3F8AC331846FFF73AFB00BF08374C
:10307000BD4680BD80B582B000AF786000214FF0C2
:10308000FF30FFF7FDFD1E4B4FF0A0421A601C4BB6
:1030900004225A601A4B00229A62194B40225A614C
:1030A000174B00221A61164B00221A62144B02229F
:1030B0009A61134B0022DA61114B0222DA60104B45
:1030C00001225A620E4A7B68C2F8AC337B680C4A14
:1030D000C3F820220A4800F0F3FE8021084801F0DE
:1030E000D9FE40220021064801F088FE80220121FD
:1030F000034801F083FE002318460837BD4680BD13
:103100007C0D002080B582B000AF78607B68D3F87A
:103110002032184600F0D8FF002318460837BD4675
:1031200080BD00BF80B582B000AF78600846114610
:103130001A460346FB700B46BB7013463B807B6808
:10314000D3F82002BB783A88F97801F0AFFB00236E
:1031500018460837BD4680BD80B582B000AF7860A4
:103160000B46FB707B68D3F82032FA78114618467C
:1031700001F004FC002318460837BD4680BD00BF9F
:1031800080B582B000AF78600B46FB707B68D3F8E7
:103190002032FA781146184601F004FD0023184643
:1031A0000837BD4680BD00BF80B582B000AF7860F3
:1031B0000B46FB707B68D3F82032FA78114618462C
:1031C00001F04AFD002318460837BD4680BD00BF08
:1031D00080B485B000AF78600B46FB707B68D3F895
:1031E0002032FB60FB785BB2002B0BDAFB7803F03C
:1031F0007F02F9681346DB009B1A9B000B443233B5
:103200001B780BE0FB7803F07F02F9681346DB00C4
:103210009B1A9B000B4403F5EB731B78184614377D
:10322000BD4680BC704700BF80B582B000AF7860FB
:103230000B46FB707B68D3F82032FA7811461846AB
:1032400001F012FB002318460837BD4680BD00BFC1
:1032500080B584B000AFF8607A601A460B46FB7206
:1032600013463B81FB68D3F820023B89F97A7A68E0
:1032700001F040FC002318461037BD4680BD00BF5A
:1032800080B584B000AFF8607A601A460B46FB72D6
:1032900013463B81FB68D3F820023B89F97A7A68B0
:1032A00001F0B6FB002318461037BD4680BD00BFB5
:1032B00080B582B000AF78600B46FB707B68D3F8B6
:1032C0002032FA781146184601F0FCFB03461846F6
:1032D0000837BD4680BD00BF80B598B000AF7860AC
:1032E0000023FB657B681B6803F00103002B6BD098
:1032F000A34B9B6803F00C03042B0BD0A04B9B68E3
:1033000003F00C03082B11D19D4B5B6803F4800381
:10331000002B0BD09A4B1B6803F40033002B52D0C8
:103320007B685B68012B4ED0012320E2954B002285
:103330001A70FFF769FBF8650AE0FFF765FB0246C4
:10334000FB6DD31A41F28832934201D903230EE276
:103350008B4B1B6803F40033002BEED1894A7B684A
:103360005B68DBB213707B685B68012B15D1FFF7DC
:103370004BFBF8650AE0FFF747FB0246FB6DD31AEB
:1033800041F28832934201D90323F0E17C4B1B6860
:1033900003F40033002BEED016E0FFF735FBF865A1
:1033A0000AE0FFF731FB0246FB6DD31A41F2883287
:1033B000934201D90323DAE1714B1B6803F4003314
:1033C000002BEED100E000BF7B681B6803F0020316
:1033D000002B7FD06A4B9B6803F00C03002B0BD0B3
:1033E000674B9B6803F00C03082B2AD1644B5B6886
:1033F00003F48003002B24D1614B1B6803F002030C
:10340000002B05D07B68DB68012B01D00123AEE1E6
:103410005B485B4B1B6823F0F8027B681B69F82153
:10342000F964F96C91FAA1F1F962F96A7963796B3F
:10343000B1FA81F13963396BC9B28B401343036030
:1034400048E07B68DB68002B2ED04F4B01221A60CE
:10345000FFF7DAFAF86508E0FFF7D6FA0246FB6DE7
:10346000D31A642B01D9032381E1454B1B6803F078
:103470000203002BF0D04248414B1B6823F0F802B6
:103480007B681B69F8217965796D91FAA1F1796200
:10349000796A3965396DB1FA81F1B962B96AC9B22F
:1034A0008B401343036015E0374B00221A60FFF78F
:1034B000ABFAF86508E0FFF7A7FA0246FB6DD31AEE
:1034C000642B01D9032352E12D4B1B6803F0020347
:1034D000002BF0D17B681B6803F00803002B30D071
:1034E0007B685B69002B16D0284B01221A60FFF71E
:1034F0008BFAF86508E0FFF787FA0246FB6DD31AEE
:10350000642B01D9032332E11D4B5B6F03F00203EF
:10351000002BF0D015E01D4B00221A60FFF774FA63
:10352000F86508E0FFF770FA0246FB6DD31A642BCA
:1035300001D903231BE1124B5B6F03F00203002B45
:10354000F0D17B681B6803F00403002B74D00C4A95
:103550000B4B1B6C43F0805313640D4A0C4B1B68E0
:1035600043F480731360FFF74FFAF86512E0FFF73A
:103570004BFA0246FB6DD31A642B0BD90323F6E0FA
:10358000003802400238024000004742800E4742A5
:1035900000700040784B1B6803F48073002BE6D06A
:1035A000764B00221A70FFF72FFAF8650AE0FFF752
:1035B0002BFA0246FB6DD31A41F28832934201D9AD
:1035C0000323D4E06E4B1B6F03F00203002BEED1FC
:1035D0006A4A7B689B68DBB213707B689B68012B2F
:1035E00015D1FFF711FAF8650AE0FFF70DFA024668
:1035F000FB6DD31A41F28832934201D90323B6E01E
:103600005F4B1B6F03F00203002BEED014E0FFF7BB
:10361000FBF9F8650AE0FFF7F7F90246FB6DD31AEC
:1036200041F28832934201D90323A0E0544B1B6F2F
:1036300003F00203002BEED17B689B69002B00F0A6
:1036400095804F4B9B6803F00C03082B00F08C8097
:103650007B689B69022B70D14A4B00221A60FFF7EE
:10366000D3F9F86508E0FFF7CFF90246FB6DD31AEE
:10367000642B01D903237AE0414B1B6803F00073EC
:10368000002BF0D13E487B681A6A7B685B6A47F67C
:10369000C071B964B96C91FAA1F1F960F968796403
:1036A000796CB1FA81F139613969C9B28B401A4339
:1036B0007B689B6A5B08013B4FF440313964396C8D
:1036C00091FAA1F179617969F963F96BB1FA81F144
:1036D000B961B969C9B28B401A437B68DB691A4387
:1036E0007B68DB6A4FF07061B963B96B91FAA1F145
:1036F000F961F969B965B96DB1FA81F13962396A6F
:10370000C9B28B40134343F0005343601D4B012269
:103710001A60FFF779F9F86508E0FFF775F90246D6
:10372000FB6DD31A642B01D9032320E0144B1B68D3
:1037300003F00073002BF0D018E0124B00221A6047
:10374000FFF762F9F86508E0FFF75EF90246FB6DE6
:10375000D31A642B01D9032309E0094B1B6803F03A
:103760000073002BF0D101E0012300E00023184694
:103770006037BD4680BD00BF007000407038024019
:10378000003802406000474280B584B000AF7860E6
:1037900039600023FB60A54B1B6803F00F023B68F8
:1037A0009A4280F08F80A14B3A68D2B21A709F4B38
:1037B0001B6803F00F023B689A4201D0012331E1FC
:1037C0007B681B6803F00203002B08D09849984BD4
:1037D0009B6823F0F0027B689B6813438B607B68D7
:1037E0001B6803F00103002B00F0F9807B685B6825
:1037F000012B07D18E4B1B6803F40033002B15D12E
:1038000001230FE17B685B68022B07D1884B1B68A3
:1038100003F00073002B09D1012303E1844B1B68E3
:1038200003F00203002B01D10123FBE08049804B10
:103830009B6823F003027B685B6813438B60FFF790
:10384000E3F8F8607B685B68012B12D10AE0FFF7B0
:10385000DBF80246FB68D31A41F28832934201D961
:103860000323DFE0724B9B6803F00C03042BEED1C3
:10387000B5E07B685B68022B1DD10AE0FFF7C4F856
:103880000246FB68D31A41F28832934201D90323DE
:10389000C8E0674B9B6803F00C03082BEED19EE059
:1038A000FFF7B2F80246FB68D31A41F2883293421E
:1038B00001D90323B6E05E4B9B6803F00C03002B99
:1038C000EED18CE07B681B6803F00203002B08D06C
:1038D0005749574B9B6823F0F0027B689B68134362
:1038E0008B607B681B6803F00103002B6AD07B6848
:1038F0005B68012B07D14E4B1B6803F40033002B90
:1039000015D101238EE07B685B68022B07D1484B01
:103910001B6803F00073002B09D1012382E0444BA4
:103920001B6803F00203002B01D101237AE0404918
:103930003F4B9B6823F003027B685B6813438B60FB
:10394000FFF762F8F8607B685B68012B12D10AE030
:10395000FFF75AF80246FB68D31A41F288329342C5
:1039600001D903235EE0324B9B6803F00C03042B68
:10397000EED127E07B685B68022B1DD10AE0FFF7E0
:1039800043F80246FB68D31A41F28832934201D9C8
:10399000032347E0264B9B6803F00C03082BEED172
:1039A00010E0FFF731F80246FB68D31A41F2883283
:1039B000934201D9032335E01D4B9B6803F00C03B0
:1039C000002BEED1194B3A68D2B21A70174B1B6814
:1039D00003F00F023B689A4201D0012322E07B688A
:1039E0001B6803F00403002B08D01149104B9B689F
:1039F00023F4E0527B68DB6813438B607B681B68B1
:103A000003F00803002B09D00949094B9B6823F4F4
:103A100060427B681B69DB0013438B600F20FEF75D
:103A2000C9FF002318461037BD4680BD003C024048
:103A30000038024080B495B000AF00237B640023BF
:103A4000FB6400233B640023BB64454B9B6803F08D
:103A50000C03042B06D0082B07D0002B76D1414B4A
:103A6000BB6476E0404BBB6473E03D4B5B6803F0A6
:103A70003F037B643A4B5B6803F480034FF480029E
:103A8000BA63BA6B92FAA2F2BA61BA693A623A6A56
:103A9000B2FA82F2FA61FA69D2B2D340002B1CD09A
:103AA000314A7B6CB2FBF3F22D4B596847F6C07379
:103AB0000B4047F6C0713963396B91FAA1F1396156
:103AC0003969F963F96BB1FA81F179617969C9B240
:103AD000CB4003FB02F3FB641BE0224A7B6CB2FB8E
:103AE000F3F21F4B596847F6C0730B4047F6C0719D
:103AF000B962B96A91FAA1F1B960B9687963796B71
:103B0000B1FA81F1F960F968C9B2CB4003FB02F365
:103B1000FB64134B5B6803F440334FF440327A622A
:103B20007A6A92FAA2F23A603A68FA62FA6AB2FAE9
:103B300082F27A607A68D2B2D34001335B003B6490
:103B4000FA6C3B6CB2FBF3F3BB6402E0054BBB6465
:103B500000BFBB6C18465437BD4680BC704700BFE1
:103B6000003802400024F40000127A0080B584B0CE
:103B700000AFFFF75FFF01460F4B9B6803F0F003B8
:103B8000F022FA60FA6892FAA2F23A603A68BA60F1
:103B9000BA68B2FA82F27A607A68D2B2D340074A3F
:103BA000D35C21FA03F3064A1360054B1B681846E1
:103BB0001037BD4680BD00BF00380240A4A30008F6
:103BC0005000002080B485B000AF78607B6803F0BF
:103BD0000703FB600C4BDB68BB60BA684FF6FF0362
:103BE0001340BB60FB681A02BB68134343F0BF631A
:103BF00043F40033BB60044ABB68D36000BF143792
:103C0000BD4680BC704700BF00ED00E080B400AF4F
:103C1000044BDB6803F4E0631B0A1846BD4680BC16
:103C2000704700BF00ED00E080B483B000AF0346F2
:103C3000FB71084997F907305B09FA7902F01F0216
:103C4000012000FA02F241F8232000BF0C37BD46E4
:103C500080BC704700E100E080B483B000AF034651
:103C6000FB71094997F907305B09FA7902F01F02E5
:103C7000012000FA02F2203341F8232000BF0C3764
:103C8000BD4680BC704700BF00E100E080B483B057
:103C900000AF03463960FB7197F90730002B0BDA50
:103CA0000D49FB7903F00F03043B3A68D2B21201CD
:103CB000D2B20B441A7609E0084997F907303A68FE
:103CC000D2B21201D2B20B4483F8002300BF0C37EA
:103CD000BD4680BC704700BF00ED00E000E100E0A1
:103CE00080B489B000AFF860B9607A60FB6803F017
:103CF0000703FB61FB69C3F10703042B28BF0423FF
:103D0000BB61FB690433062B02D9FB69033B00E06E
:103D100000237B610122BB6902FA03F3013B1A46CF
:103D2000BB681A407B699A4001217B6901FA03F361
:103D3000013B19467B680B40134318462437BD46A8
:103D400080BC704780B582B000AF78607B68013B73
:103D5000B3F1807F01D301230FE00A4A7B68013B66
:103D600053600F214FF0FF30FFF790FF054B00220B
:103D70009A60044B07221A60002318460837BD4694
:103D800080BD00BF10E000E080B582B000AF786079
:103D90007868FFF717FF00BF0837BD4680BD00BF3A
:103DA00080B586B000AF0346B9607A60FB7300232C
:103DB0007B61FFF72BFF78617A68B9687869FFF754
:103DC0008FFF024697F90F3011461846FFF75EFF46
:103DD00000BF1837BD4680BD80B582B000AF034636
:103DE000FB7197F907301846FFF71EFF00BF083731
:103DF000BD4680BD80B582B000AF0346FB7197F928
:103E000007301846FFF728FF00BF0837BD4680BDC2
:103E100080B582B000AF78607868FFF793FF034603
:103E200018460837BD4680BD80B400AF124A124B19
:103E30001B6843F0010313600F4B00229A600E4A87
:103E40000D4B1B6823F0847323F4803313600A4BFB
:103E50000A4A5A60084A084B1B6823F480231360FF
:103E6000054B0022DA60064B4FF000629A6000BFFB
:103E7000BD4680BC704700BF0038024010300024AF
:103E800000ED00E080B485B000AF78600A4B1B689D
:103E9000002B02D1084B094A1A60074B1B68FB60D4
:103EA000054B1A687B681344034A1360FB68184685
:103EB0001437BD4680BC7047FC090020AC210020AF
:103EC000F0B58DB008AF78600023FB607B68002BF5
:103ED00001D10123F3E07B68032283F8792378681A
:103EE000FEF7F8FE7B681B681846FDF725F87B682F
:103EF0001B683B607E686D4606F110040FCC0FC551
:103F000094E80F0085E80F00331D0ECB3868FCF7EE
:103F1000B1FF7B681B6800211846FDF71DF80023E0
:103F2000FB604CE07968FA681346DB009B1A9B0043
:103F30000B44313301221A70FB68D8B27968FA68F1
:103F40001346DB009B1A9B000B44303302461A7069
:103F5000FB6898B27968FA681346DB009B1A9B00ED
:103F60000B44363302461A807968FA681346DB0040
:103F70009B1A9B000B44333300221A707968FA684D
:103F80001346DB009B1A9B000B44383300221A6057
:103F90007968FA681346DB009B1A9B000B443C339C
:103FA00000221A607968FA681346DB009B1A9B00AE
:103FB0000B44443300221A60FB680133FB60FB684A
:103FC0000E2BAFD90023FB605AE07968FA681346DC
:103FD000DB009B1A9B000B4403F2D51300221A70DE
:103FE000FB68D8B27968FA681346DB009B1A9B001D
:103FF0000B4403F5EA7302461A70FB6898B27968BD
:10400000FA681346DB009B1A9B000B4436330246CA
:104010001A807968FA681346DB009B1A9B000B44F0
:1040200003F2D71300221A707968FA681346DB008E
:104030009B1A9B000B4403F5EE7300221A6079680B
:10404000FA681346DB009B1A9B000B4403F5F073E0
:1040500000221A607968FA681346DB009B1A9B00FD
:104060000B4403F5F47300221A607B681A68FB683E
:1040700040339B00134400225A60FB680133FB600D
:10408000FB680E2BA1D97B681B683B607E686D4680
:1040900006F110040FCC0FC594E80F0085E80F005F
:1040A000331D0ECB3868FCF77FFF7B68012283F855
:1040B00079237B681B681846FDF750FF00231846DC
:1040C0001437BD46F0BD00BF80B582B000AF786048
:1040D0007B6893F87833012B01D1022312E07B68CF
:1040E000012283F878237B681B681846FDF71EFFC2
:1040F0007B681B681846FCF70FFF7B68002283F87B
:104100007823002318460837BD4680BD80B58AB0A5
:1041100000AF78607B681B68BB6100237B62002373
:104120003B6200237B610023FB6100233B61002392
:10413000FB607B681B681846FDF7B2FF0346002B47
:1041400040F08E837B681B681846FDF71FFF03460F
:10415000002B00F084837B681B681846FDF716FF70
:10416000034603F00203002B03D07B681B68022286
:104170005A617B681B681846FDF708FF034603F485
:104180000023002B00F0B2800023FB617B681B68DA
:104190001846FDF70FFF3862A4E03B6A03F0010305
:1041A000002B00F099807B681B68FA69D2B2114637
:1041B0001846FDF72FFF78617B6903F00103002BA0
:1041C0006BD0FB695A01BB69134403F530631A468F
:1041D000012393607B681B69012B3CD17968FA69E4
:1041E0001346DB009B1A9B000B4403F5EE731A6821
:1041F000FB695901BB690B4403F530631B69C3F3C9
:104200001203D11A7868FA691346DB009B1A9B00E7
:10421000034403F5F67319607968FA691346DB0005
:104220009B1A9B000B4403F5F07319687868FA69D0
:104230001346DB009B1A9B00034403F5EE731B68D7
:1042400019447868FA691346DB009B1A9B00034403
:1042500003F5F0731960FB69DBB219467868FEF765
:1042600041FE7B681B69012B17D1FB69002B14D120
:104270007968FA691346DB009B1A9B000B4403F52F
:10428000F4731B68002B08D17B6818687B6803F502
:104290005F731A460121FDF747FF7B6903F00803AE
:1042A000002B0BD07868FEF70BFEFB695A01BB6947
:1042B000134403F530631A46082393607B6903F0C7
:1042C0001003002B08D0FB695A01BB69134403F5A6
:1042D00030631A4610239360FB690133FB613B6A2C
:1042E0005B083B623B6A002B7FF457AF7B681B681F
:1042F0001846FDF74BFE034603F48023002B00F025
:10430000C3807B681B681846FDF76CFE386200238B
:10431000FB61B5E03B6A03F00103002B00F0AA80CB
:104320007B681B68FA69D2B211461846FDF78EFE0B
:1043300078617B6903F00103002B5AD00122FB69ED
:1043400002FA03F33B61BB6903F500631946BB69DD
:1043500003F500635A6B3B69DB4313404B63FB6916
:104360005A01BB69134403F510631A460123936095
:104370007B681B69012B1BD17968FA691346DB0046
:104380009B1A9B000B443C3319687868FA69134602
:10439000DB009B1A9B00034438331B681944786880
:1043A000FA691346DB009B1A9B0003443C331960F7
:1043B000FB69DBB219467868FEF7B0FD7B681B69C4
:1043C000012B16D1FB69002B13D17968FA691346CA
:1043D000DB009B1A9B000B4444331B68002B08D165
:1043E0007B6818687B6803F55F731A460121FDF747
:1043F0009BFE7B6903F00803002B08D0FB695A0180
:10440000BB69134403F510631A46082393607B6964
:1044100003F01003002B08D0FB695A01BB69134459
:1044200003F510631A46102393607B6903F0400381
:10443000002B08D0FB695A01BB69134403F51063D4
:104440001A46402393607B6903F00203002B08D0D7
:10445000FB695A01BB69134403F510631A46022332
:1044600093607B6903F08003002B03D0F9697868BF
:1044700000F03CFCFB690133FB613B6A5B083B627B
:104480003B6A002B7FF446AF7B681B681846FDF73C
:104490007DFD0346002B12DABB6903F500631A4663
:1044A000BB6903F500635B6823F001035360786820
:1044B000FEF792FD7B681B684FF000425A617B68F3
:1044C0001B681846FDF762FD034603F40063002BEA
:1044D0000FD0BB6903F500639B6803F00103002B59
:1044E00002D07868FEF76AFD7B681B684FF40062B3
:1044F0005A617B681B681846FDF748FD034603F4C4
:104500008053002B00F08E80BB6903F500631A46D0
:10451000BB6903F500635B6823F0010353607B68AC
:104520001B6800211846FCF76BFE00237B6214E039
:104530007B6A5A01BB69134403F510631A46FF23D3
:1045400093607B6A5A01BB69134403F530631A46D2
:10455000FF2393607B6A01337B627B685A687B6AC6
:104560009A42E5D8BB6903F500631A464FF0FF3362
:104570009361BB6903F500631A46BB6903F50063E9
:10458000DB6943F00113D3617B689B6A002B18D071
:10459000BB6903F500631A46BB6903F50063D3F8F2
:1045A000843043F00B03C2F88430BB6903F5006329
:1045B0001A46BB6903F500635B6C43F00B0353645D
:1045C00015E0BB6903F500631A46BB6903F5006398
:1045D0005B6943F00B035361BB6903F500631A4643
:1045E000BB6903F500631B6943F00B031361BB69EF
:1045F00003F500631A46BB6903F500631B6823F4E7
:10460000FE6313607B6818687B681B69D9B27B689E
:1046100003F55F731A46FDF787FD7B681B684FF44F
:1046200080525A617B681B681846FDF7AFFC034651
:1046300003F40053002B3AD07B681B681846FDF743
:104640003DFD7B681B687A681268D26822F470525C
:10465000DA607B681B681846FCF72EFE0346002BC9
:104660000FD17B680022DA607B684FF400725A61D8
:104670007B681B687A681268D26842F41052DA606C
:104680000DE07B680322DA607B6840225A617B6818
:104690001B687A681268D26842F4A052DA607868BF
:1046A000FEF764FC7B681B684FF400525A617B681C
:1046B0001B681846FDF76AFC034603F01003002B45
:1046C00061D07B681B687A681268926922F01002D8
:1046D0009A61BB691B6AFB60FB6803F00F0213461B
:1046E000DB009B1A9B0003F5E8737A6813440433DC
:1046F000BB60FB685B0C03F00F03022B24D1FA684C
:1047000047F6F0731340002B35D0BB68D968FB68BF
:104710001B099BB2C3F30A039BB21A46B869FDF7A3
:10472000D9FABB68DA68FB681B09C3F30A031A44A9
:10473000BB68DA60BB689A69FB681B09C3F30A03AC
:104740001A44BB689A6116E0FB685B0C03F00F0328
:10475000062B10D17B6803F55F7308221946B869F0
:10476000FDF7B8FABB689A69FB681B09C3F30A0333
:104770001A44BB689A617B681B687A681268926900
:1047800042F010029A617B681B681846FDF7FEFB39
:10479000034603F00803002B06D07868FEF7D8FB29
:1047A0007B681B6808225A617B681B681846FDF706
:1047B000EDFB034603F48013002B0AD0FB69DBB248
:1047C00019467868FEF728FC7B681B684FF4801256
:1047D0005A617B681B681846FDF7D8FB034603F453
:1047E0000013002B0AD0FB69DBB219467868FEF78C
:1047F00001FC7B681B684FF400125A617B681B68E0
:104800001846FDF7C3FB034603F08043002B07D097
:104810007868FEF713FC7B681B684FF080425A6192
:104820007B681B681846FDF7B1FB034603F00403E1
:10483000002B15D07B681B685B68FB60FB6803F08E
:104840000403002B02D07868FEF706FC7B681B6827
:104850007A6812685168FA680A435A6000E000BF3B
:104860002837BD4680BD00BF80B582B000AF7860FC
:104870000B46FB707B6893F87833012B01D1022340
:104880000FE07B68012283F878237B681B68FA7845
:1048900011461846FDF724FB7B68002283F8782335
:1048A000002318460837BD4680BD00BF80B584B0E0
:1048B00000AF7860084611461A460346FB700B4667
:1048C0003B801346BB700023FB72FB785BB2002B6E
:1048D0000BDAFB7803F07F021346DB009B1A9B0088
:1048E00030337A681344FB600CE0FB7803F07F02FE
:1048F0001346DB009B1A9B0003F5E8737A681344A8
:104900000433FB60FB7803F07F03DAB2FB681A70B4
:10491000FB78DB09DBB21A46FB685A703A88FB6801
:104920009A60FB68BA78DA70FB685B78002B04D079
:10493000FB681B789AB2FB68DA80BB78022B02D145
:10494000FB6800221A717B6893F87833012B01D140
:1049500002230EE07B68012283F878237B681B68C2
:10496000F9681846FCF7DCFC7B68002283F87823A2
:10497000FB7A18461037BD4680BD00BF80B584B0B5
:1049800000AF78600B46FB70FB785BB2002B0BDA54
:10499000FB7803F07F021346DB009B1A9B00303349
:1049A0007A681344FB600CE0FB7803F07F02134647
:1049B000DB009B1A9B0003F5E8737A681344043309
:1049C000FB60FB7803F07F03DAB2FB681A70FB78B8
:1049D000DB09DBB21A46FB685A707B6893F87833C0
:1049E000012B01D102230EE07B68012283F878239A
:1049F0007B681B68F9681846FCF71AFD7B68002283
:104A000083F87823002318461037BD4680BD00BFC9
:104A100080B586B000AFF8607A603B600B46FB72F1
:104A2000FB7A03F07F021346DB009B1A9B0003F521
:104A3000E873FA68134404337B617B697A68DA604F
:104A40007B693A685A617B6900229A617B6900221E
:104A50005A70FB7A03F07F03DAB27B691A70FB6845
:104A60001B69012B02D17A687B691A61FB6893F894
:104A70007833012B01D1022320E0FB68012283F867
:104A80007823FB7A03F07F03002B09D1FB681868B9
:104A9000FB681B69DBB21A467969FCF785FF08E001
:104AA000FB681868FB681B69DBB21A467969FCF77A
:104AB00039FDFB68002283F8782300231846183755
:104AC000BD4680BD80B483B000AF78600B46FB70FC
:104AD000FB7803F07F0279681346DB009B1A9B008A
:104AE0000B4403F5F6731B689BB218460C37BD46A2
:104AF00080BC704780B586B000AFF8607A603B60DC
:104B00000B46FB72FB7A03F07F021346DB009B1A15
:104B10009B003033FA6813447B617B697A68DA6002
:104B20007B693A685A617B6900229A617B6901223C
:104B30005A70FB7A03F07F03DAB27B691A70FB6864
:104B40001B69012B02D17A687B691A61FB6893F8B3
:104B50007833012B01D1022320E0FB68012283F886
:104B60007823FB7A03F07F03002B09D1FB681868D8
:104B7000FB681B69DBB21A467969FCF715FF08E090
:104B8000FB681868FB681B69DBB21A467969FCF799
:104B9000C9FCFB68002283F87823002318461837E5
:104BA000BD4680BD80B584B000AF78600B46FB7019
:104BB000FB785BB2002B0BDAFB7803F07F02134625
:104BC000DB009B1A9B0030337A681344FB600AE0D9
:104BD000FA781346DB009B1A9B0003F5E8737A68AA
:104BE00013440433FB60FB6801229A70FB7803F0E6
:104BF0007F03DAB2FB681A70FB78DB09DBB21A4676
:104C0000FB685A707B6893F87833012B01D102233B
:104C10001EE07B68012283F878237B681B68F968B3
:104C20001846FDF781F8FB7803F07F03002B0AD1CB
:104C30007B6818687B681B69D9B27B6803F55F7372
:104C40001A46FDF771FA7B68002283F87823002367
:104C500018461037BD4680BD80B584B000AF78607F
:104C60000B46FB70FB785BB2002B0BDAFB7803F092
:104C70007F021346DB009B1A9B0030337A68134493
:104C8000FB600AE0FA781346DB009B1A9B0003F5F1
:104C9000E8737A6813440433FB60FB6800229A705F
:104CA000FB7803F07F03DAB2FB681A70FB78DB094C
:104CB000DBB21A46FB685A707B6893F87833012B95
:104CC00001D102230EE07B68012283F878237B6800
:104CD0001B68F9681846FDF797F87B68002283F88F
:104CE0007823002318461037BD4680BD80B58AB0B2
:104CF00002AF786039607B681B687B610023FB61D1
:104D000000233B613A681346DB009B1A9B0030335B
:104D10007A681344FB60FB685A69FB689B69D31A85
:104D2000FB61FB689A68FB699A4202D2FB689B6848
:104D3000FB61FB690333002B00DA03339B10BB617B
:104D40002EE0FB685A69FB689B69D31AFB61FB681C
:104D50009A68FB699A4202D2FB689B68FB61FB6917
:104D60000333002B00DA03339B10BB61FB68D96867
:104D70003B68DAB2FB6998B27B681B69DBB20093CF
:104D800003467869FCF76EFFFB68DA68FB691A4432
:104D9000FB68DA60FB689A69FB691A44FB689A61F0
:104DA0003B685A017B69134403F510639B699AB20F
:104DB000BB699A4209D9FB689A69FB685B699A42A8
:104DC00003D2FB685B69002BBBD1FB69002B10DCB5
:104DD00001223B6802FA03F33B617B6903F5006340
:104DE00019467B6903F500635A6B3B69DB4313404B
:104DF0004B63002318462037BD4680BD80B485B084
:104E000000AF78600B46FB7013463B800023FB73BA
:104E10000023BB607B681B685B6ABB60FB78002B70
:104E200008D17B681B683A8812041146BA680A43A5
:104E30009A6229E07B681B689B6A1B0CBA68134462
:104E4000BB600023FB730DE07B681A68FB7B40337B
:104E50009B0013445B681B0CBA681344BB60FB7B6C
:104E60000133FB73FA7BFB78013B9A42ECDB7B68F6
:104E70001968FB78013B3A8812041046BA6802436D
:104E800040339B000B445A60002318461437BD463C
:104E900080BC704780B483B000AF78600B467B80E5
:104EA0007B681B687A885A62002318460C37BD4617
:104EB00080BC704780B487B000AF78603960002351
:104EC000FB600023BB6000233B6100237B616FE13B
:104ED00001227B6902FA03F3FB603B681A68FB68F6
:104EE0001340BB60BA68FB689A4240F05E813B6841
:104EF0005B68022B03D03B685B68122B23D17B6974
:104F0000DA087B68083253F822303B617B6903F092
:104F100007039B000F2202FA03F3DB433A691340B5
:104F20003B613B681A697B6903F007039B0002FA47
:104F300003F33A6913433B617B69DA087B68083203
:104F4000396943F822107B681B683B617B695B0011
:104F5000032202FA03F3DB433A6913403B613B68E7
:104F60005B6803F003027B695B0002FA03F33A69B2
:104F700013433B617B683A691A603B685B68012BAD
:104F80000BD03B685B68022B07D03B685B68112B3A
:104F900003D03B685B68122B30D17B689B683B6118
:104FA0007B695B00032202FA03F3DB433A69134097
:104FB0003B613B68DA687B695B0002FA03F33A699C
:104FC00013433B617B683A699A607B685B683B612D
:104FD00001227B6902FA03F3DB433A6913403B6128
:104FE0003B685B681B0903F001027B6902FA03F36B
:104FF0003A6913433B617B683A695A607B68DB68B6
:105000003B617B695B00032202FA03F3DB433A69ED
:1050100013403B613B689A687B695B0002FA03F3CB
:105020003A6913433B617B683A69DA603B685B68C5
:1050300003F08053002B00F0B880624A614B5B6C38
:1050400043F480435364604A7B699B08023352F8FF
:1050500023303B617B6903F003039B000F2202FABC
:1050600003F3DB433A6913403B617B68574A934241
:1050700037D07B68564A934231D07B68554A934279
:105080002BD07B68544A934225D07B68534A934285
:105090001FD07B68524A934219D07B68514A934291
:1050A00013D07B68504A93420DD07B684F4A93429D
:1050B00007D07B684E4A934201D1092312E00A23AC
:1050C00010E008230EE007230CE006230AE0052386
:1050D00008E0042306E0032304E0022302E00123A6
:1050E00000E000237A6902F00302920093403A69DB
:1050F00013433B6134497B699B0802333A6941F8A9
:1051000023203C4B1B683B61BB68DB433A6913407F
:105110003B613B685B6803F48033002B03D03A6942
:10512000BB6813433B61334A3B691360314B5B6897
:105130003B61BB68DB433A6913403B613B685B689A
:1051400003F40033002B03D03A69BB6813433B617F
:10515000284A3B695360274B9B683B61BB68DB4334
:105160003A6913403B613B685B6803F48013002B92
:1051700003D03A69BB6813433B611E4A3B699360A5
:105180001C4BDB683B61BB68DB433A6913403B6106
:105190003B685B6803F40013002B03D03A69BB68DB
:1051A00013433B61134A3B69D3607B6901337B61E5
:1051B0007B690F2B7FF68CAE00BF1C37BD4680BCD1
:1051C000704700BF00380240003801400000024034
:1051D0000004024000080240000C0240001002409F
:1051E0000014024000180240001C0240002002404F
:1051F00000240240003C014080B487B000AF7860DA
:10520000396000233B610023FB600023BB60002367
:105210007B6182E001227B6902FA03F33B613A6819
:105220003B691340FB60FA683B699A4272D17B6824
:105230001A687B695B00032101FA03F3DB431A4020
:105240007B681A607B69DA087B69D9087B6808315A
:1052500053F821107B6903F007039B000F2000FA2D
:1052600003F3DB4319407B68083243F822107B6864
:105270009A687B695B00032101FA03F3DB431A4060
:105280007B689A607B685A6801217B6901FA03F3A5
:10529000DB431A407B685A607B68DA687B695B0095
:1052A000032101FA03F3DB431A407B68DA607B6970
:1052B00003F003039B000F2202FA03F3BB601B48B9
:1052C0007B699B0819497A699208023251F82210C9
:1052D000BA68D2430A40023340F823201449144BE1
:1052E0001A68FB68DB4313400B601149104B5A6886
:1052F000FB68DB4313404B600D490D4B9A68FB681C
:10530000DB4313408B600A49094BDA68FB68DB43D7
:105310001340CB607B6901337B617B690F2B7FF688
:1053200079AF00BF1C37BD4680BC704700380140D4
:10533000003C014080B483B000AF78600B467B80B6
:105340007B685A697B885A407B685A6100BF0C377A
:10535000BD4680BC704700BFDFF834D0002103E0B9
:105360000C4B5B58435004310B480C4B42189A428B
:10537000F6D30B4A02E0002342F8043B094B9A4261
:10538000F9D3FEF751FD04F087FAFDF7C1F9704734
:1053900000000220BCA3000800000020DC0900205F
:1053A000DC090020AC210020FEE7000080B584B0BD
:1053B00000AF78600B46FB700023FB737B681B7C9F
:1053C000002B0ED14FF40073022281217868FDF783
:1053D000A9FE4FF40073022201217868FDF7A2FEB6
:1053E0000BE04023022281217868FDF79BFE4023D9
:1053F000022201217868FDF795FE0823032282210D
:105400007868FDF78FFE4FF4077004F06DFA0346DD
:105410001A467B68C3F818227B68D3F81832002B31
:1054200002D10123FB7326E07B68D3F81832BB60FE
:105430007B68D3F81C321B689847BB680022C3F80E
:105440001422BB680022C3F818227B681B7C002B47
:1054500009D1BB68D3F804224FF4007301217868A6
:10546000FDF70EFF07E0BB68D3F8042240230121BB
:105470007868FDF705FFFB7B18461037BD4680BDF9
:1054800080B584B000AF78600B46FB700023FB73DF
:1054900081217868FDF760FE01217868FDF75CFEE8
:1054A00082217868FDF758FE7B68D3F81832002B0C
:1054B0000ED07B68D3F81C325B6898477B68D3F8C2
:1054C0001832184604F018FA7B680022C3F8182234
:1054D000FB7B18461037BD4680BD00BF80B584B049
:1054E00000AF786039607B68D3F81832FB603B68A6
:1054F0001B7803F06003002B3BD0202B00D044E04E
:105500003B68DB88002B2AD03B681B78DBB25BB2A0
:10551000002B11DA7B68D3F81C329B683A6850780C
:10552000F9683A68D2889847F9683B68DB881A4678
:10553000786804F02BF929E03B685A78FB6883F817
:1055400000223B68DB88DAB2FB6883F80122F96845
:105550003B68DB881A46786804F046F916E07B68F9
:10556000D3F81C329B683A68507800223968984713
:105570000CE03B685B780A2B01D00B2B05E0012285
:105580000549786804F002F900BF00BF00231846FF
:105590001037BD4680BD00BF000A002080B485B032
:1055A00000AF78600B46FB707B68D3F81832FB6065
:1055B0007B68D3F81832002B05D0FB680022C3F8B3
:1055C0001422002300E0022318461437BD4680BC95
:1055D000704700BF80B584B000AF78600B46FB70A9
:1055E0007B68D3F81832FB60FB7819467868FDF7C2
:1055F0005FFE0246FB68C3F80C227B68D3F81832C2
:10560000002B0DD07B68D3F81C32DB68FA68D2F827
:105610000402FA6802F5037211469847002300E07D
:10562000022318461037BD4680BD00BF80B584B048
:1056300000AF78607B68D3F81832FB607B68D3F8E2
:105640001C32002B15D0FB6893F80032FF2B10D0D2
:105650007B68D3F81C329B68FA6892F80002F968FC
:10566000FA6892F8012292B29847FB68FF2283F809
:105670000022002318461037BD4680BD80B483B099
:1056800000AF78607B6843221A80034B18460C37C2
:10569000BD4680BC704700BFEC00002080B483B0E2
:1056A00000AF78607B6843221A80034B18460C37A2
:1056B000BD4680BC704700BFA800002080B483B006
:1056C00000AF78607B6843221A80034B18460C3782
:1056D000BD4680BC704700BF3001002080B483B05D
:1056E00000AF78607B680A221A80034B18460C379B
:1056F000BD4680BC704700BF6400002080B485B008
:1057000000AF786039600223FB733B68002B05D043
:105710007B683A68C3F81C220023FB73FB7B1846A6
:105720001437BD4680BC704780B487B000AFF860C6
:10573000B9601346FB80FB68D3F818327B617B6944
:10574000BA68C3F80822FA887B69C3F810220023DC
:1057500018461C37BD4680BC704700BF80B485B07A
:1057600000AF786039607B68D3F81832FB60FB6863
:105770003A68C3F80422002318461437BD4680BC9B
:10578000704700BF80B584B000AF78607B68D3F805
:105790001832FB607B68D3F81832002B17D0FB68F7
:1057A000D3F81432002B10D1FB680122C3F8142265
:1057B000FB68D3F80822FB68D3F810329BB2812132
:1057C0007868FDF745FD002302E0012300E0022395
:1057D00018461037BD4680BD80B500AF00F050F9C7
:1057E0000A48FBF755F90346002B01D000F068F991
:1057F000002207490748FFF797FF07490548FFF7C9
:10580000ADFF00235BB2184680BD00BF6C210020B5
:105810006C110020440A00206C19002080B500AFF4
:105820000548FAF733FD0346002B01D000F048F994
:1058300000235BB2184680BD3011002080B483B0D5
:1058400000AF03463960FB711346BB80FB79232B05
:1058500000F2988001A252F823F000BF8559000899
:1058600085590008855900088559000885590008A0
:105870008559000885590008855900088559000890
:105880008559000885590008855900088559000880
:105890008559000885590008855900088559000870
:1058A0008559000885590008855900088559000860
:1058B0008559000885590008855900088559000850
:1058C0008559000885590008855900088559000840
:1058D000855900088559000885590008ED580008C9
:1058E0003159000885590008855900083B681B7824
:1058F0001A463B6801331B781B021A433B6802338C
:105900001B781B041A433B6803331B781B061343A5
:105910001A46204B1A603B681A791E4B1A713B6875
:105920005A791C4B5A713B689A791A4B9A712AE042
:10593000184B1B68DAB23B681A703B680133154A92
:105940001268120AD2B21A703B680233114A126806
:10595000120CD2B21A703B6803330E4A1268120E50
:10596000D2B21A703B6804330A4A12791A703B6843
:105970000533084A52791A703B680633054A927912
:105980001A7000E000BF00235BB218460C37BD461A
:1059900080BC70477401002080B584B000AF78608F
:1059A0001D4B1A681D4B1B689A4231D01A4B1A685E
:1059B0001A4B1B689A4205D9174B1B68C3F5006345
:1059C000FB6005E0154B1A68134B1B68D31AFB608C
:1059D000114B1B68BB60BB68114A1344FA6892B252
:1059E00019461048FFF7A0FE0E48FFF7CBFE03460E
:1059F000002B0DD1084B1A68FB681344064A13604C
:105A0000054B1B68B3F5006F02D1034B00221A60EF
:105A100000BF1037BD4680BD080A0020040A0020E0
:105A20006C110020440A002080B582B000AF78607D
:105A300039603B681B689BB21A4679680448FAF7DC
:105A400047FC00235BB218460837BD4680BD00BF47
:105A50003011002080B582B000AF786039603B68BB
:105A60009BB21A4679680548FFF75EFE0348FFF7C8
:105A700089FE00BF0837BD4680BD00BF440A002034
:105A800080B500AF0C4B0D4A1A600B4B41F28732C8
:105A9000DA60094B53225A60074B00221A61064B09
:105AA00000229A600448FAF7C1FF0346002B01D098
:105AB00000F006F800BF80BD6C210020000400400B
:105AC00080B400AF00BFBD4680BC704780B483B0D7
:105AD00000AF786000BF0C37BD4680BC704700BF88
