:020000040800F2
:100000000000022095130008D1030008DD0300085A
:10001000E5030008ED030008F503000800000000F8
:10002000000000000000000000000000FD030008C8
:10003000090400080000000015040008210400085D
:10004000E5130008E5130008E5130008E5130008B0
:10005000E5130008E5130008E5130008E5130008A0
:10006000E5130008E5130008E5130008E513000890
:10007000E5130008E5130008E5130008E513000880
:10008000E5130008E5130008E5130008E513000870
:10009000E5130008E5130008E5130008E513000860
:1000A000E5130008E5130008E5130008E513000850
:1000B000E5130008E5130008E5130008E513000840
:1000C000E5130008E5130008E5130008E513000830
:1000D000E5130008E5130008E5130008E513000820
:1000E000E5130008E5130008E5130008E513000810
:1000F000E5130008E5130008E5130008E513000800
:10010000E5130008E5130008E5130008E5130008EF
:10011000E5130008E5130008E5130008E5130008DF
:10012000E5130008E5130008E5130008E5130008CF
:10013000E5130008E5130008E5130008E5130008BF
:10014000E5130008E5130008E5130008E5130008AF
:10015000E5130008E5130008E5130008E51300089F
:10016000E5130008E5130008E5130008E51300088F
:10017000E5130008E5130008E5130008000000007F
:10018000E5130008E5130008044B05481B1A062B6D
:1001900002D9044B03B11847704700BF5304002035
:1001A000500400200000000005490648091A891083
:1001B00001EBD171491002D0034B03B118477047CE
:1001C00050040020500400200000000010B5064C30
:1001D000237843B9FFF7D8FF044B13B10448AFF3BA
:1001E00000800123237010BD500400200000000097
:1001F0006015000808B5084B1BB108490848AFF363
:1002000000800848036813B9BDE80840CCE7064BF6
:10021000002BF9D09847F7E70000000054040020B5
:10022000601500084C0400200000000080B500AFFD
:1002300000F0FCF800F06EF8334A334B1B6B43F0D0
:1002400008031363314B4FF478421A602F4B01229D
:100250005A602E4B00229A602C4B0222DA602B4906
:100260002B4800F0E3FE4FF40061294801F080F8CC
:10027000642000F031F94FF48051254801F078F8FE
:10028000642000F029F94FF40051214801F070F882
:10029000642000F021F94FF480411D4801F068F816
:1002A000642000F019F94FF40041194801F060F89A
:1002B000C82000F011F94FF40041154801F058F83A
:1002C000642000F009F94FF48041114801F050F822
:1002D000642000F001F94FF400510D4801F048F896
:1002E000642000F0F9F84FF48051094801F040F81B
:1002F000642000F0F1F84FF40061054801F038F88F
:10030000642000F0E9F8AEE70038024070040020F5
:10031000000C024080B592B000AF274A264B1B6C00
:1003200043F080531364254A244B1B6843F4404335
:10033000136001237B600123BB600223FB614FF448
:1003400080033B6208237B624FF4A873BB620223E5
:10035000FB6207233B633B1D184600F0DFF80346B2
:10036000002B01D000F02EF80F237B630223BB6328
:100370000023FB634FF4A0533B644FF480537B6432
:1003800007F134030521184600F020FB0346002B3B
:1003900001D000F017F800F0B5F8024641F2010371
:1003A0009A4205D1064A064B1B6843F480731360DA
:1003B00000BF4837BD4680BD003802400070004095
:1003C000003C024080B400AF00BFBD4680BC704717
:1003D00080B400AF00BFBD4680BC704780B400AFA2
:1003E000FEE700BF80B400AFFEE700BF80B400AFFF
:1003F000FEE700BF80B400AFFEE700BF80B400AFEF
:1004000000BFBD4680BC704780B400AF00BFBD4692
:1004100080BC704780B400AF00BFBD4680BC704751
:1004200080B500AF00F040F800BF80BD80B500AFE0
:100430000E4A0E4B1B6843F4007313600B4A0B4BC0
:100440001B6843F480631360084A084B1B6843F43D
:1004500080731360032000F087FD0F2000F008F880
:1004600000F0C2FF0023184680BD00BF003C0240E0
:1004700080B582B000AF786000F09AFC0246094B6C
:10048000A3FB02239B09184600F096FD0022796821
:100490004FF0FF3000F074FD002318460837BD46CA
:1004A00080BD00BFD34D621080B400AF044B1B6809
:1004B0000133034A136000BFBD4680BC704700BFD4
:1004C0006C04002080B400AF024B1B681846BD4688
:1004D00080BC70476C04002080B584B000AF7860A9
:1004E0000023FB60FFF7EEFFF86000BFFFF7EAFFB5
:1004F0000246FB68D21A7B689A42F7D300BF1037D6
:10050000BD4680BD80B400AF034B1B681B0C184672
:10051000BD4680BC704700BF002004E080B598B0A5
:1005200000AF78600023FB657B681B6803F0010364
:10053000002B6BD0A34B9B6803F00C03042B0BD058
:10054000A04B9B6803F00C03082B11D19D4B5B68FB
:1005500003F48003002B0BD09A4B1B6803F4003389
:10056000002B52D07B685B68012B4ED0012320E228
:10057000954B00221A70FFF7A5FFF8650AE0FFF718
:10058000A1FF0246FB6DD31A41F28832934201D992
:1005900003230EE28B4B1B6803F40033002BEED1D8
:1005A000894A7B685B68DBB213707B685B68012BF0
:1005B00015D1FFF787FFF8650AE0FFF783FF0246D2
:1005C000FB6DD31A41F28832934201D90323F0E143
:1005D0007C4B1B6803F40033002BEED016E0FFF7D2
:1005E00071FFF8650AE0FFF76DFF0246FB6DD31A55
:1005F00041F28832934201D90323DAE1714B1B683F
:1006000003F40033002BEED100E000BF7B681B68D1
:1006100003F00203002B7FD06A4B9B6803F00C03AE
:10062000002B0BD0674B9B6803F00C03082B2AD1DF
:10063000644B5B6803F48003002B24D1614B1B687F
:1006400003F00203002B05D07B68DB68012B01D08F
:100650000123AEE15B485B4B1B6823F0F8027B682B
:100660001B69F821F964F96C91FAA1F1F962F96A50
:100670007963796BB1FA81F13963396BC9B28B4017
:100680001343036048E07B68DB68002B2ED04F4BA0
:1006900001221A60FFF716FFF86508E0FFF712FF66
:1006A0000246FB6DD31A642B01D9032381E1454B2C
:1006B0001B6803F00203002BF0D04248414B1B683B
:1006C00023F0F8027B681B69F8217965796D91FA4E
:1006D000A1F17962796A3965396DB1FA81F1B9624E
:1006E000B96AC9B28B401343036015E0374B00224F
:1006F0001A60FFF7E7FEF86508E0FFF7E3FE024641
:10070000FB6DD31A642B01D9032352E12D4B1B68D7
:1007100003F00203002BF0D17B681B6803F0080391
:10072000002B30D07B685B69002B16D0284B012250
:100730001A60FFF7C7FEF86508E0FFF7C3FE024640
:10074000FB6DD31A642B01D9032332E11D4B5B6F80
:1007500003F00203002BF0D015E01D4B00221A60BD
:10076000FFF7B0FEF86508E0FFF7ACFE0246FB6D50
:10077000D31A642B01D903231BE1124B5B6F03F0E7
:100780000203002BF0D17B681B6803F00403002BED
:1007900074D00C4A0B4B1B6C43F0805313640D4A0E
:1007A0000C4B1B6843F480731360FFF78BFEF865F6
:1007B00012E0FFF787FE0246FB6DD31A642B0BD9BC
:1007C0000323F6E0003802400238024000004742AE
:1007D000800E474200700040784B1B6803F4807322
:1007E000002BE6D0764B00221A70FFF76BFEF865FF
:1007F0000AE0FFF767FE0246FB6DD31A41F288322A
:10080000934201D90323D4E06E4B1B6F03F0020324
:10081000002BEED16A4A7B689B68DBB213707B6861
:100820009B68012B15D1FFF74DFEF8650AE0FFF735
:1008300049FE0246FB6DD31A41F28832934201D938
:100840000323B6E05F4B1B6F03F00203002BEED0D7
:1008500014E0FFF737FEF8650AE0FFF733FE0246C3
:10086000FB6DD31A41F28832934201D90323A0E0F1
:10087000544B1B6F03F00203002BEED17B689B6986
:10088000002B00F095804F4B9B6803F00C03082B66
:1008900000F08C807B689B69022B70D14A4B002250
:1008A0001A60FFF70FFEF86508E0FFF70BFE02463F
:1008B000FB6DD31A642B01D903237AE0414B1B68EB
:1008C00003F00073002BF0D13E487B681A6A7B6806
:1008D0005B6A47F6C071B964B96C91FAA1F1F9602D
:1008E000F9687964796CB1FA81F139613969C9B211
:1008F0008B401A437B689B6A5B08013B4FF4403195
:100900003964396C91FAA1F179617969F963F96B0C
:10091000B1FA81F1B961B969C9B28B401A437B68F8
:10092000DB691A437B68DB6A4FF07061B963B96BAE
:1009300091FAA1F1F961F969B965B96DB1FA81F17D
:100940003962396AC9B28B40134343F000534360A4
:100950001D4B01221A60FFF7B5FDF86508E0FFF7AF
:10096000B1FD0246FB6DD31A642B01D9032320E0AD
:10097000144B1B6803F00073002BF0D018E0124BEF
:1009800000221A60FFF79EFDF86508E0FFF79AFD68
:100990000246FB6DD31A642B01D9032309E0094BEE
:1009A0001B6803F00073002BF0D101E0012300E08D
:1009B000002318466037BD4680BD00BF0070004070
:1009C00070380240003802406000474280B584B071
:1009D00000AF786039600023FB60A54B1B6803F013
:1009E0000F023B689A4280F08F80A14B3A68D2B2E6
:1009F0001A709F4B1B6803F00F023B689A4201D0AC
:100A0000012331E17B681B6803F00203002B08D04F
:100A10009849984B9B6823F0F0027B689B681343CE
:100A20008B607B681B6803F00103002B00F0F980EA
:100A30007B685B68012B07D18E4B1B6803F4003386
:100A4000002B15D101230FE17B685B68022B07D1D6
:100A5000884B1B6803F00073002B09D1012303E1CD
:100A6000844B1B6803F00203002B01D10123FBE040
:100A70008049804B9B6823F003027B685B681343CB
:100A80008B60FFF71FFDF8607B685B68012B12D15C
:100A90000AE0FFF717FD0246FB68D31A41F28832DD
:100AA000934201D90323DFE0724B9B6803F00C03F0
:100AB000042BEED1B5E07B685B68022B1DD10AE008
:100AC000FFF700FD0246FB68D31A41F288329342D9
:100AD00001D90323C8E0674B9B6803F00C03082B84
:100AE000EED19EE0FFF7EEFC0246FB68D31A41F21E
:100AF0008832934201D90323B6E05E4B9B6803F032
:100B00000C03002BEED18CE07B681B6803F0020322
:100B1000002B08D05749574B9B6823F0F0027B68A5
:100B20009B6813438B607B681B6803F00103002BF9
:100B30006AD07B685B68012B07D14E4B1B6803F4BE
:100B40000033002B15D101238EE07B685B68022BFC
:100B500007D1484B1B6803F00073002B09D1012318
:100B600082E0444B1B6803F00203002B01D10123F8
:100B70007AE040493F4B9B6823F003027B685B6847
:100B800013438B60FFF79EFCF8607B685B68012B6A
:100B900012D10AE0FFF796FC0246FB68D31A41F235
:100BA0008832934201D903235EE0324B9B6803F005
:100BB0000C03042BEED127E07B685B68022B1DD170
:100BC0000AE0FFF77FFC0246FB68D31A41F2883245
:100BD000934201D9032347E0264B9B6803F00C03A3
:100BE000082BEED110E0FFF76DFC0246FB68D31A2C
:100BF00041F28832934201D9032335E01D4B9B68B3
:100C000003F00C03002BEED1194B3A68D2B21A70E4
:100C1000174B1B6803F00F023B689A4201D0012377
:100C200022E07B681B6803F00403002B08D0114905
:100C3000104B9B6823F4E0527B68DB6813438B60A6
:100C40007B681B6803F00803002B09D00949094B96
:100C50009B6823F460427B681B69DB0013438B6055
:100C60000F20FFF705FC002318461037BD4680BD56
:100C7000003C02400038024080B495B000AF002331
:100C80007B640023FB6400233B640023BB64454B6F
:100C90009B6803F00C03042B06D0082B07D0002B15
:100CA00076D1414BBB6476E0404BBB6473E03D4B77
:100CB0005B6803F03F037B643A4B5B6803F480039B
:100CC0004FF48002BA63BA6B92FAA2F2BA61BA69BF
:100CD0003A623A6AB2FA82F2FA61FA69D2B2D3405F
:100CE000002B1CD0314A7B6CB2FBF3F22D4B5968C0
:100CF00047F6C0730B4047F6C0713963396B91FA00
:100D0000A1F139613969F963F96BB1FA81F179615E
:100D10007969C9B2CB4003FB02F3FB641BE0224AB2
:100D20007B6CB2FBF3F21F4B596847F6C0730B4064
:100D300047F6C071B962B96A91FAA1F1B960B968B0
:100D40007963796BB1FA81F1F960F968C9B2CB4086
:100D500003FB02F3FB64134B5B6803F440334FF473
:100D600040327A627A6A92FAA2F23A603A68FA6299
:100D7000FA6AB2FA82F27A607A68D2B2D340013368
:100D80005B003B64FA6C3B6CB2FBF3F3BB6402E0C8
:100D9000054BBB6400BFBB6C18465437BD4680BCD6
:100DA000704700BF003802400024F40000127A00AF
:100DB00080B584B000AFFFF75FFF01460F4B9B6823
:100DC00003F0F003F022FA60FA6892FAA2F23A60B5
:100DD0003A68BA60BA68B2FA82F27A607A68D2B2D5
:100DE000D340074AD35C21FA03F3064A1360054B4C
:100DF0001B6818461037BD4680BD00BF0038024052
:100E0000481500080000002080B485B000AF78606D
:100E10007B6803F00703FB600C4BDB68BB60BA68C0
:100E20004FF6FF031340BB60FB681A02BB68134315
:100E300043F0BF6343F40033BB60044ABB68D36034
:100E400000BF1437BD4680BC704700BF00ED00E016
:100E500080B400AF044BDB6803F4E0631B0A184660
:100E6000BD4680BC704700BF00ED00E080B483B099
:100E700000AF03463960FB7197F90730002B0BDA9E
:100E80000D49FB7903F00F03043B3A68D2B212011B
:100E9000D2B20B441A7609E0084997F907303A684C
:100EA000D2B21201D2B20B4483F8002300BF0C3738
:100EB000BD4680BC704700BF00ED00E000E100E0EF
:100EC00080B489B000AFF860B9607A60FB6803F065
:100ED0000703FB61FB69C3F10703042B28BF04234D
:100EE000BB61FB690433062B02D9FB69033B00E0BD
:100EF00000237B610122BB6902FA03F3013B1A461E
:100F0000BB681A407B699A4001217B6901FA03F3AF
:100F1000013B19467B680B40134318462437BD46F6
:100F200080BC704780B582B000AF78607B68013BC1
:100F3000B3F1807F01D301230FE00A4A7B68013BB4
:100F400053600F214FF0FF30FFF790FF054B002259
:100F50009A60044B07221A60002318460837BD46E2
:100F600080BD00BF10E000E080B582B000AF7860C7
:100F70007868FFF749FF00BF0837BD4680BD00BF56
:100F800080B586B000AF0346B9607A60FB7300237A
:100F90007B61FFF75DFF78617A68B9687869FFF770
:100FA0008FFF024697F90F3011461846FFF75EFF94
:100FB00000BF1837BD4680BD80B582B000AF7860F5
:100FC0007868FFF7AFFF034618460837BD4680BD77
:100FD00080B400AF124A124B1B6843F00103136048
:100FE0000F4B00229A600E4A0D4B1B6823F084734E
:100FF00023F4803313600A4B0A4A5A60084A084BAC
:101000001B6823F480231360054B0022DA60064B33
:101010004FF000629A6000BFBD4680BC704700BFC1
:10102000003802401030002400ED00E080B487B0AA
:1010300000AF786039600023FB600023BB600023B1
:101040003B6100237B616FE101227B6902FA03F3BC
:10105000FB603B681A68FB681340BB60BA68FB68BA
:101060009A4240F05E813B685B68022B03D03B688C
:101070005B68122B23D17B69DA087B68083253F84E
:1010800022303B617B6903F007039B000F2202FAC9
:1010900003F3DB433A6913403B613B681A697B69A0
:1010A00003F007039B0002FA03F33A6913433B6121
:1010B0007B69DA087B680832396943F822107B685B
:1010C0001B683B617B695B00032202FA03F3DB438D
:1010D0003A6913403B613B685B6803F003027B693C
:1010E0005B0002FA03F33A6913433B617B683A6998
:1010F0001A603B685B68012B0BD03B685B68022B76
:1011000007D03B685B68112B03D03B685B68122BF0
:1011100030D17B689B683B617B695B00032202FAEC
:1011200003F3DB433A6913403B613B68DA687B6950
:101130005B0002FA03F33A6913433B617B683A6947
:101140009A607B685B683B6101227B6902FA03F36A
:10115000DB433A6913403B613B685B681B0903F062
:1011600001027B6902FA03F33A6913433B617B682E
:101170003A695A607B68DB683B617B695B000322EC
:1011800002FA03F3DB433A6913403B613B689A6818
:101190007B695B0002FA03F33A6913433B617B68A6
:1011A0003A69DA603B685B6803F08053002B00F01B
:1011B000B880624A614B5B6C43F480435364604A7D
:1011C0007B699B08023352F823303B617B6903F053
:1011D00003039B000F2202FA03F3DB433A69134037
:1011E0003B617B68574A934237D07B68564A9342AB
:1011F00031D07B68554A93422BD07B68544A934246
:1012000025D07B68534A93421FD07B68524A934251
:1012100019D07B68514A934213D07B68504A93425D
:101220000DD07B684F4A934207D07B684E4A934269
:1012300001D1092312E00A2310E008230EE007235E
:101240000CE006230AE0052308E0042306E003235C
:1012500004E0022302E0012300E000237A6902F0A7
:101260000302920093403A6913433B6134497B691E
:101270009B0802333A6941F823203C4B1B683B61D1
:10128000BB68DB433A6913403B613B685B6803F42E
:101290008033002B03D03A69BB6813433B61334A68
:1012A0003B691360314B5B683B61BB68DB433A6968
:1012B00013403B613B685B6803F40033002B03D0B1
:1012C0003A69BB6813433B61284A3B695360274B2B
:1012D0009B683B61BB68DB433A6913403B613B68F9
:1012E0005B6803F48013002B03D03A69BB68134397
:1012F0003B611E4A3B6993601C4BDB683B61BB68EA
:10130000DB433A6913403B613B685B6803F40013BD
:10131000002B03D03A69BB6813433B61134A3B6916
:10132000D3607B6901337B617B690F2B7FF68CAEC9
:1013300000BF1C37BD4680BC704700BF003802406C
:101340000038014000000240000402400008024052
:10135000000C02400010024000140240001802403D
:10136000001C02400020024000240240003C0140DA
:1013700080B483B000AF78600B467B807B685A698D
:101380007B885A407B685A6100BF0C37BD4680BCE1
:10139000704700BFDFF834D0002103E00C4B5B58EE
:1013A000435004310B480C4B42189A42F6D30B4A77
:1013B00002E0002342F8043B094B9A42F9D3FFF7BD
:1013C00007FE00F017F8FEF731FF7047000002201B
:1013D0006015000800000020500400205004002088
:1013E00084040020FEE7000080B400AF00BFBD46CB
:1013F00080BC704770B50F4E0F4D761BB61018BFEE
:10140000002405D0013455F8043B9847A642F9D191
:101410000A4E0B4D761B00F08BF8B61018BF002457
:1014200006D0013455F8043B9847A642F9D170BD67
:1014300070BD00BF4004002040040020480400208C
:1014400040040020024B13B1024800F005B8704779
:101450000000000065140008002301461A461846E3
:1014600000F014B838B5074D074C2C1BA41005D05C
:10147000013C55F8043D9847002CF9D1BDE83840AF
:1014800000F05CB84C040020480400202DE9F0472F
:10149000254C2568D5F84841064688469246994627
:1014A000C4B360681F2817DC431C76B104EB8005C9
:1014B0000122C5F888A0D4F8881182401143022E79
:1014C000C4F88811C5F808911ED00230636044F852
:1014D00020800020BDE8F087144B03B34FF4C870A0
:1014E000AFF300800446D0B1D5F84831002780E83A
:1014F0008800C5F8484138460123C4F88871C4F80B
:101500008C71002EE1D0D1E7D4F88C110A43C4F8D5
:101510008C21DAE705F5A674C5F84841C1E74FF01C
:10152000FF30BDE8F08700BF5C1500080000000038
:10153000F8B500BFF8BC08BC9E467047F8B500BFC0
:10154000F8BC08BC9E46704700000000010203047E
:1015500001020304060708094300000018000020E8
:101560000024F40000000000000000000102030459
:101570000607080900000000000000000403002026
:101580006C030020D40300200000000000000000D5
:10159000000000000000000000000000000000004B
:1015A00000000000000000000000000058150008C6
:1015B000000000000000000000000000000000002B
:1015C000000000000000000000000000000000001B
:1015D000000000000000000000000000000000000B
:1015E00000000000000000000000000000000000FB
:1015F00000000000000000000000000000000000EB
:1016000000000000000000000000000000000000DA
:1016100000000000000000000000000000000000CA
:1016200001000000000000000E33CDAB34126DE667
:10163000ECDE05000B0000000000000000000000D0
:10164000000000000000000000000000000000009A
:10165000000000000000000000000000000000008A
:10166000000000000000000000000000000000007A
:10167000000000000000000000000000000000006A
:1019A00045140008F5010008CD0100080000000002
:0400000508000000EF
:00000001FF
